:100000000C9463000C948B000C948B000C948B006C
:100010000C948B000C948B000C948B000C948B0034
:100020000C948B000C948B000C948B000C948B0024
:100030000C948B000C948B000C948B000C948B0014
:100040000C949A040C948B000C940A050C94E40410
:100050000C948B000C948B000C948B000C948B00F4
:100060000C948B000C948B000000000024002700EF
:100070002A0000000000250028002B0000000000DE
:1000800023002600290004040404040404040202DA
:100090000202020203030303030301020408102007
:1000A0004080010204081020010204081020000012
:1000B0000008000201000003040700000000000027
:1000C00000003C056E0811241FBECFEFD8E0DEBF54
:1000D000CDBF22E0AEE5B1E001C01D92A739B20765
:1000E000E1F711E0A0E0B1E0E6E6F5E102C005903D
:1000F0000D92AE35B107D9F710E0C2E6D0E004C0EA
:100100002197FE010E94AE08C136D107C9F70E94AF
:100110003C060C94A60A0C94000096E0899FD0013E
:100120001124AA5FBD4F90967C936E935F9791E0E8
:1001300091969C939197E0917302F0917402909143
:100140007202992339F0309751F0811108C08091E3
:1001500022020994309719F05C968C91FACF089599
:10016000CF92DF92EF92FF920F931F9396E0899FB9
:10017000F0011124EA5FFD4F11A2278D30A121303B
:10018000310551F178F02230310509F451C02330A6
:10019000310509F452C01F910F91FF90EF90DF904D
:1001A000CF9008956623B9F361E070E00E948D005E
:1001B0002FB7F8948091650190916601A091670135
:1001C000B09168012FBF80935E0290935F02A0936D
:1001D0006002B0936102DFCF9FB7F894C0906501D1
:1001E000D0906601E0906701F09068019FBF009198
:1001F0005E0210915F022091600230916102C01A8C
:10020000D10AE20AF30A009170021091710230E003
:1002100020E00C151D052E053F0550F462E070E04E
:100220001F910F91FF90EF90DF90CF900C948D0075
:100230006111B1CF63E070E0F3CF70E060E0F0CF28
:10024000833081F028F4813099F08230A9F008954C
:100250008730A9F08830C9F08430B1F480918000F3
:100260008F7D03C0809180008F77809380000895F8
:1002700084B58F7784BD089584B58F7DFBCF809141
:10028000B0008F778093B00008958091B0008F7D8B
:10029000F9CFCF93DF93282F30E0F901E255FF4FDC
:1002A0008491F901E656FF4FD491F901EA57FF4FC7
:1002B000C491CC23A1F081110E942001EC2FF0E029
:1002C000EE0FFF1FE458FF4FA591B491EC91ED2381
:1002D00081E090E009F480E0DF91CF91089580E023
:1002E00090E0FACF1F93CF93DF93282F30E0F901EE
:1002F000E255FF4F8491F901E656FF4FD491F90181
:10030000EA57FF4FC491CC23A9F0162F81110E9408
:100310002001EC2FF0E0EE0FFF1FEE58FF4FA591EC
:10032000B4918FB7F894EC91111108C0D095DE23E9
:10033000DC938FBFDF91CF911F910895DE2BF8CF13
:10034000CF93DF9390E0FC01E656FF4F24918A574C
:100350009F4FFC0184918823C9F090E0880F991F7A
:10036000FC01E859FF4FA591B491FC01EE58FF4FF5
:10037000C591D49161110DC09FB7F8948C912095CF
:1003800082238C938881282328839FBFDF91CF917C
:100390000895623051F49FB7F8943C91822F809574
:1003A00083238C93E8812E2BEFCF8FB7F894EC91B9
:1003B0002E2B2C938FBFEACF3FB7F8948091610129
:1003C00090916201A0916301B091640126B5A89B50
:1003D00005C02F3F19F00196A11DB11D3FBFBA2FD7
:1003E000A92F982F8827BC01CD01620F711D811D97
:1003F000911D42E0660F771F881F991F4A95D1F71C
:1004000008958F929F92AF92BF92CF92DF92EF9218
:10041000FF924B015C010E94DC016B017C010E9498
:10042000DC016C197D098E099F09683E73408105C6
:100430009105A8F321E0821A9108A108B10888EE7D
:10044000C80E83E0D81EE11CF11C81149104A104A4
:10045000B10429F7FF90EF90DF90CF90BF90AF905D
:100460009F908F900895862F642F0C94A001862F63
:10047000642F0C947201862F0C944901AF92BF92A5
:10048000CF92DF92EF92FF920F931F93CF93DF9360
:100490006C017B018B01040F151FEB015E01AE188F
:1004A000BF08C017D10759F06991D601ED91FC91B1
:1004B0000190F081E02DC6010995892B79F7C501DE
:1004C000DF91CF911F910F91FF90EF90DF90CF9030
:1004D000BF90AF900895FC01538D448D252F30E0DF
:1004E000842F90E0821B930B541710F0CF96089541
:1004F00001970895FC01918D828D981761F0A28D6E
:10050000AE0FBF2FB11D5D968C91928D9F5F9F7333
:10051000928F90E008958FEF9FEF0895FC01918DE9
:10052000828D981731F0828DE80FF11D858D90E056
:1005300008958FEF9FEF0895FC01918D228D892FF3
:1005400090E0805C9F4F821B91098F7399270895DB
:1005500089E691E00E949C0221E0892B09F420E0C9
:10056000822F089580E090E0892B29F00E94A80254
:1005700081110C9400000895FC01A48DA80FB92FDF
:10058000B11DA35ABF4F2C91848D90E001968F73BB
:100590009927848FA689B7892C93A089B1898C91DA
:1005A000837080648C93938D848D981306C0028829
:1005B000F389E02D80818F7D80830895EF92FF92F3
:1005C0000F931F93CF93DF93EC0181E0888F9B8D76
:1005D0008C8D98131AC0E889F989808185FF15C030
:1005E0009FB7F894EE89FF896083E889F989808153
:1005F0008370806480839FBF81E090E0DF91CF9122
:100600001F910F91FF90EF900895F62E0B8D10E043
:100610000F5F1F4F0F731127E02E8C8D8E110CC0B2
:100620000FB607FCFACFE889F989808185FFF5CFFD
:10063000CE010E94BC02F1CFEB8DEC0FFD2FF11D1E
:10064000E35AFF4FF0829FB7F8940B8FEA89FB893A
:1006500080818062CFCFCF93DF93EC01888D882398
:10066000B9F0AA89BB89E889F9898C9185FD03C015
:10067000808186FD0DC00FB607FCF7CF8C9185FFFA
:10068000F2CF808185FFEDCFCE010E94BC02E9CF81
:10069000DF91CF910895089590E080E00895CF9381
:1006A000DF93EC0160E08E810E94720161E08E8137
:1006B0000E94720160E08E810E9472018BE891E0DD
:1006C0000197F1F7DF91CF910895CF92DF92EF92EA
:1006D000FF920F931F93CF93DF936C017C0187E010
:1006E000E80EF11CD0E0C0E0062F10E0B8010C2E9F
:1006F00002C0759567950A94E2F76170F7018191E0
:100700007F010E9472012196C430D10579F7C6019C
:10071000DF91CF911F910F91FF90EF90DF90CF90DD
:100720000C944F03CF92DF92EF92FF920F931F939F
:10073000CF93DF93EC01F62E642F8C810E9472011F
:100740008D818F3F19F060E00E9472010F2D10E043
:100750008F8584FF25C06E0187E0C80ED11CF12C67
:10076000E12CB8010E2C02C0759567950A94E2F74A
:100770006170F60181916F010E947201FFEFEF1A23
:10078000FF0A88E0E816F10461F7CE01DF91CF910E
:100790001F910F91FF90EF90DF90CF900C944F033B
:1007A000B80184E0759567958A95E1F7CE010E94BE
:1007B00065036F2DCE01DF91CF911F910F91FF90B7
:1007C000EF90DF90CF900C94650340E0682F85E7B1
:1007D00092E00C94920381E00E94E5038BE39FE199
:1007E0000197F1F70895CF93DF93823029F4909128
:1007F0008402986090938402809388021092890208
:1008000080E480938A0280E180938B0280E580936C
:100810008C0261E0809179020E94A00180917A02AD
:100820008F3F19F061E00E94A00161E080917B029E
:100830000E94A001C5E7D2E09E0125573240809179
:10084000840284FD0BC084E090E0219628173907CC
:1008500044F461E08E810E94A001EECF88E090E038
:10086000F4CF8BE39DE00197F1F760E0809179028E
:100870000E94720160E080917B020E94720180916F
:100880007A028F3F19F060E00E9472018091840229
:1008900084FD34C063E085E792E00E946503CBE409
:1008A000D6E4CE010197F1F763E085E792E00E947C
:1008B00065032197F1F763E085E792E00E94650305
:1008C00083E592E00197F1F762E085E792E00E940C
:1008D00065038091840280620E94E50384E0809336
:1008E00085028CE00E94E5030E94EB0382E0809386
:1008F000860286E0DF91CF910C94E50380620E942E
:10090000E5038BE496E40197F1F78091840280621D
:100910000E94E50383E592E00197F1F7809184025C
:1009200080620E94E503D5CF41E00E94920381E0FE
:1009300090E008951F920F920FB60F9211242F93FB
:100940003F938F939F93AF93BF9380916501909155
:100950006601A0916701B09168013091600123E0C8
:10096000230F2D3758F50196A11DB11D209360016D
:100970008093650190936601A0936701B09368012D
:100980008091610190916201A0916301B091640135
:100990000196A11DB11D8093610190936201A09306
:1009A0006301B0936401BF91AF919F918F913F918B
:1009B0002F910F900FBE0F901F90189526E8230FD0
:1009C0000296A11DB11DD2CF1F920F920FB60F92AA
:1009D00011242F933F934F935F936F937F938F9344
:1009E0009F93AF93BF93EF93FF9389E691E00E94AB
:1009F000BC02FF91EF91BF91AF919F918F917F9139
:100A00006F915F914F913F912F910F900FBE0F907B
:100A10001F9018951F920F920FB60F9211242F93CB
:100A20008F939F93EF93FF93E0917901F0917A0177
:100A30008081E0917F01F091800182FD1BC0908157
:100A4000809182018F5F8F7320918301821741F023
:100A5000E0918201F0E0E759FE4F958F809382018B
:100A6000FF91EF919F918F912F910F900FBE0F905B
:100A70001F9018958081F4CF10926C0110926B0139
:100A800088EE93E0A0E0B0E080936D0190936E015A
:100A9000A0936F01B09370018DE191E090936A0192
:100AA0008093690185EC90E09093760180937501C5
:100AB00084EC90E0909378018093770180EC90E053
:100AC00090937A018093790181EC90E090937C017E
:100AD00080937B0182EC90E090937E0180937D0176
:100AE00086EC90E09093800180937F0110928201C8
:100AF00010928301109284011092850110928E024F
:100B000010928D021092900210928F021092920217
:100B10001092910261E070E090E080E00E94D909BB
:100B20000097E9F090938E0280938D0210929002CC
:100B300010928F022091910230919202232B11F496
:100B4000FC01108210929202109291026DE571E008
:100B500080918D0290918E020E949F0A14C0809114
:100B60008D0290918E02009711F00E945009109210
:100B70008E0210928D0210929202109291021092A7
:100B8000900210928F02109278021092770289E3FD
:100B900091E0909376028093750287E080937902CA
:100BA0008FEF80937A0286E080937B0285E08093CA
:100BB0007C0284E080937D0283E080937E0282E069
:100BC00080937F0210928002109281021092820222
:100BD000109283021092840281E00E94F30310922B
:100BE000080210920C0210920B0210920D028FE27A
:100BF00091E09093070280930602E2E2F2E08EE534
:100C000092E0108214821382158236968E179F0707
:100C1000C1F783E091E0909369028093680280E0DD
:100C200091E090936B0280936A0284E080936C025F
:100C300083E080936D0287E091E090936702809358
:100C400066028AE090E090936F0280936E0284EFD8
:100C500091E090937102809370021092740210924E
:100C60007302109262021092630210926402109258
:100C70006502109272020895789484B5826084BDF2
:100C800084B5816084BD85B5826085BD85B5816090
:100C900085BD80916E00816080936E00109281000E
:100CA00080918100826080938100809181008160C9
:100CB000809381008091800081608093800080918A
:100CC000B10084608093B1008091B0008160809316
:100CD000B00080917A00846080937A0080917A00DD
:100CE000826080937A0080917A00816080937A009C
:100CF00080917A00806880937A001092C100E09120
:100D00007901F0917A0182E08083E0917501F091A0
:100D100076011082E0917701F09178018FEC808369
:100D200010928101E0917D01F0917E0186E0808347
:100D3000E0917B01F0917C01808180618083E09172
:100D40007B01F0917C01808188608083E0917B0150
:100D5000F0917C01808180688083E0917B01F0913B
:100D60007C0180818F7D8083E1E080918802811108
:100D7000E0E0E195F0E0EB58FD4F848980680E9447
:100D8000E50382E00E94F3034CE050E061E471E08F
:100D900085E792E00E943E0264EF71E080E090E01F
:100DA0000E940102C0E1D0E08CE10E94E50362E311
:100DB00070E080E090E00E9401022197A9F70E9474
:100DC000EB03E1E0809188028111E0E0E195F0E041
:100DD000EB58FD4F84898F5F80680E94E5034CE0EB
:100DE00050E06EE471E085E792E00E943E0264EF1D
:100DF00071E080E090E00E9401020E94EB03412C30
:100E0000512C3201439488248A94982C50E0C52EAA
:100E100050E0D52E51E0509372028FB7F894409174
:100E200065015091660160916701709168018FBF03
:100E30008091620290916302A0916402B091650278
:100E4000481B590B6A0B7B0B80916E0290916F02CD
:100E5000B0E0A0E084179507A607B70708F021C106
:100E6000C0E080916C02C81760F4E0916802F091D4
:100E70006902EC0FF11D62E080810E94A001CF5F4A
:100E8000F0CF312C80916D02381608F05FC0032D31
:100E900010E0E0916A02F0916B02E00FF11F61E057
:100EA00080810E94A001E0916A02F0916B02E00F44
:100EB000F11F60E080810E947201D301C201032C06
:100EC00004C0880F991FAA1FBB1F0A94D2F75C01A8
:100ED0007C01E094F094212C80916C022816F8F4A7
:100EE000C22DD0E0E0916802F0916902EC0FFD1F85
:100EF00080810E9449012496CC0FDD1FCA5FDD4F1F
:100F0000892B41F4888199818A299B299983888337
:100F10002394E2CF888199818E219F21F7CFE091A0
:100F20006A02F0916B02E00FF11F61E080810E9484
:100F3000720180916A0290916B02080F191F60E0A4
:100F4000F80180810E94A00133949CCF06E012E05A
:100F5000E8018F8D98A1892B21F41C8E9E8E8D8E99
:100F600019A22696F2E0C234DF0799F7B12C8091DE
:100F70006C02B81608F053C0A12CEB2CF12CEE0C2F
:100F8000FF1CC701825F9D4F7C0120916D02A2165C
:100F900008F043C0F701608171810A2C02C0769588
:100FA00067950A94E2F7B29E900111242A0D311D33
:100FB000E6E0F2E080E0458D568D2417350709F410
:100FC0008BC08F5F36968A30B1F760FF24C0E6E0B1
:100FD000F2E090E080E0448D411118C0E09166029B
:100FE000F0916702E20FF31F408156E0589FF00135
:100FF000599FF00D1124EA5FFD4F448F368F258FE6
:1010000010A2178E61E00E94B00005C001963696CE
:101010008A30910501F7A394B8CFB394A8CF80E0AC
:10102000F80191A19111892F0A5F1F4FC017D107B5
:10103000B9F79FB7F89440916501509166016091AE
:101040006701709168019FBF4093620250936302F1
:101050006093640270936502882319F180912702DE
:101060008823F9F080912502909126020197C9F416
:10107000C0912202C11118C080915E0190915F0160
:10108000019690935F0180935E01C114D10409F42D
:10109000C1CE0E94A802882309F4BCCE0E940000A1
:1010A000B9CE10927202E8CF6C2F89E691E00E94CF
:1010B000DE0242E050E06BE571E089E691E00E94DB
:1010C0003E0241E06C2F85E792E00E949203CA3213
:1010D00099F60E94EB03D0CF617095CF80918D027D
:1010E00090918E02009711F00C94500908952F9260
:1010F0003F924F925F926F927F928F929F92AF92A8
:10110000BF92CF92DF92EF92FF920F931F93CF93F4
:10111000DF93CDB7DEB7CA1BDB0B0FB6F894DEBF8B
:101120000FBECDBF09942A88398848885F846E84B1
:101130007D848C849B84AA84B984C884DF80EE80FB
:10114000FD800C811B81AA81B981CE0FD11D0FB604
:10115000F894DEBF0FBECDBFED010895EE0FFF1F67
:101160000590F491E02D09940F931F93CF93DF9393
:101170008230910510F482E090E0E0919502F091C8
:10118000960230E020E0B0E0A0E0309799F421151D
:10119000310509F44AC0281B390B24303105D8F534
:1011A0008A819B816115710589F1FB01938382839B
:1011B000FE0111C0408151810281138148175907F6
:1011C000E0F04817590799F4109761F012960C93C4
:1011D000129713961C933296CF01DF91CF911F91F6
:1011E0000F9108950093950210939602F4CF211564
:1011F000310551F04217530738F0A901DB019A017C
:10120000BD01DF01F801C1CFEF01F9CF9093960244
:1012100080939502CDCFFE01E20FF31F819391934E
:101220002250310939832883D7CF209193023091FE
:101230009402232B41F42091150130911601309333
:1012400094022093930220911301309114012115EF
:10125000310541F42DB73EB7409117015091180167
:10126000241B350BE0919302F0919402E217F307EF
:10127000A0F42E1B3F0B2817390778F0AC014E5F06
:101280005F4F2417350748F04E0F5F1F50939402AD
:1012900040939302819391939FCFF0E0E0E09CCF45
:1012A000CF93DF930097E9F0FC013297138212820B
:1012B000A0919502B0919602ED0130E020E01097E8
:1012C000A1F420813181820F931F209193023091EC
:1012D00094022817390709F061C0F0939402E09353
:1012E0009302DF91CF910895EA01CE17DF07E8F569
:1012F0004A815B819E0141155105B1F7E901FB83EC
:10130000EA8349915991C40FD51FEC17FD0761F489
:10131000808191810296840F951FE90199838883CA
:10132000828193819B838A83F0E0E0E012968D9125
:101330009C9113970097B9F52D913C911197CD0190
:101340000296820F931F20919302309194022817E6
:10135000390739F6309751F510929602109295029E
:10136000B0939402A0939302BCCFD383C2834081F5
:101370005181840F951FC817D90761F44E5F5F4FE5
:1013800088819981480F591F518340838A819B81AD
:10139000938382832115310509F0B0CFF093960233
:1013A000E09395029ECFFD01DC01C0CF1382128233
:1013B000D7CFB0E0A0E0EFEDF9E00C9479088C0114
:1013C000009751F4CB010E94B4088C01C801CDB73D
:1013D000DEB7E0E10C949508FC01E60FF71F9C01D5
:1013E00022503109E217F30708F49DC0D901CD91CD
:1013F000DC911197C617D70798F0C530D10530F3A7
:10140000CE0104978617970708F3C61BD70B2297C0
:10141000C193D1936D937C93CF010E945009D6CF95
:101420005B01AC1ABD0A4C018C0E9D1EA091950269
:10143000B0919602512C412CF12CE12C109731F5F2
:1014400080919302909194028815990509F05CC0EF
:101450004616570608F058C0809113019091140168
:10146000009741F48DB79EB7409117015091180134
:10147000841B950BE817F90708F055C0F093940208
:10148000E0939302F90171836083A0CF8D919C91C9
:10149000119712966C90129713967C901397A8153B
:1014A000B90559F56C0142E0C40ED11CCA14DB0425
:1014B00020F1AC014A195B09DA011296159780F008
:1014C0006282738251834083D9016D937C93E114CE
:1014D000F10471F0D7011396FC93EE93129776CF37
:1014E00022968C0F9D1FF90191838083F301EFCF2A
:1014F000F0939602E093950269CF4816590608F4D6
:101500002C017D01D3019ACFCB010E94B4087C014C
:10151000009749F0AE01B8010E94960AC8010E94E6
:101520005009870153CF10E000E050CFFB01DC01F0
:1015300002C001900D9241505040D8F70895FB0130
:10154000DC0101900D920020E1F7089510E0C2E661
:10155000D0E004C0FE010E94AE082196C336D10738
:06156000C9F7F894FFCF6B
:101566000C0D130B0A090831323334353637383946
:101576002A302300009702800000000000DE023EB1
:10158600026B022B039C027A028E020000000033DB
:101596000237023B020000000094043E024C034B5B
:1015A600034B686177756C657A612E2E2E00546147
:0E15B6007020596F757220546167000D0A0095
:00000001FF
