:100000000C9463000C948B000C948B000C948B006C
:100010000C948B000C948B000C948B000C948B0034
:100020000C948B000C948B000C9401040C947404BD
:100030000C94BA030C948B000C948B000C948B00E2
:100040000C9470030C948B000C948B000C948B001C
:100050000C948B000C948B000C948B000C948B00F4
:100060000C948B000C948B000000000023002600F1
:10007000290000000000240027002A0000000000E2
:10008000250028002B0004040404040404040202D4
:100090000202020203030303030301020408102007
:1000A0004080010204081020010204081020000012
:1000B0000008000201000003040700000000000027
:1000C0000000DC05640611241FBECFEFD8E0DEBFC0
:1000D000CDBF22E0ACE4B1E001C01D92A239B2076D
:1000E000E1F711E0A0E0B1E0E8E8F1E102C005903D
:1000F0000D92AC34B107D9F710E0C2E6D0E004C0ED
:100100002197FE010E94BF06C136D107C9F70E94A0
:1001100043050C94B7080C940000833081F028F458
:10012000813099F08230A9F008958730A9F08830A5
:10013000C9F08430B1F4809180008F7D03C080913C
:1001400080008F7780938000089584B58F7784BD79
:10015000089584B58F7DFBCF8091B0008F77809319
:10016000B00008958091B0008F7DF9CF1F93CF9399
:10017000DF93282F30E0F901E255FF4F8491F90118
:10018000E656FF4FD491F901EA57FF4FC491CC23B3
:10019000A9F0162F81110E948D00EC2FF0E0EE0FD8
:1001A000FF1FE458FF4FA591B4918FB7F894EC91DD
:1001B000111108C0D095DE23DC938FBFDF91CF9162
:1001C0001F910895DE2BF8CFCF93DF9390E0FC01D1
:1001D000E656FF4F24918A579F4FFC018491882354
:1001E000C9F090E0880F991FFC01EE58FF4FA591D0
:1001F000B491FC01E458FF4FC591D49161110DC039
:100200009FB7F8948C91209582238C938881282322
:1002100028839FBFDF91CF910895623051F49FB73B
:10022000F8943C91822F809583238C93E8812E2B28
:10023000EFCF8FB7F894EC912E2B2C938FBFEACF92
:100240003FB7F8948091720290917302A09174026A
:10025000B091750226B5A89B05C02F3F19F00196F5
:10026000A11DB11D3FBFBA2FA92F982F8827BC0110
:10027000CD01620F711D811D911D42E0660F771F38
:10028000881F991F4A95D1F70895AF92BF92CF92D8
:10029000DF92EF92FF920F931F93CF93DF936C0146
:1002A0007B018B01040F151FEB015E01AE18BF0827
:1002B000C017D10759F06991D601ED91FC910190D9
:1002C000F081E02DC6010995892B79F7C501DF91F1
:1002D000CF911F910F91FF90EF90DF90CF90BF9043
:1002E000AF90089550916C0240916B02852F90E081
:1002F000242F30E0541718F0821B930B0895805B75
:100300009F4FFACF80916C02E0916B028E1751F0F3
:10031000EF5FE03508F0E0E0F0E0E55EFD4F808162
:1003200090E008958FEF9FEF089580916C02909177
:100330006B02891769F09F5F903508F090E0E92F14
:10034000F0E0E55EFD4F808190936B0290E00895B0
:100350008FEF9FEF0895CF93DF9370E0FB01E2559D
:10036000FF4F8491FB01E656FF4FD4916A577F4FB0
:10037000FB01C491CC23A1F081110E948D00EC2FD0
:10038000F0E0EE0FFF1FE859FF4FA591B491EC91FB
:10039000ED2381E090E009F480E0DF91CF910895B2
:1003A00080E090E0FACF862F642F0C94B600862F61
:1003B000642F0C94E4000895809115028111FCCF04
:1003C0000895809112028F5F843408F080E090914C
:1003D00011029817E1F32FB7F89490911502992321
:1003E00059F0E82FF0E0E353FE4F60838093120250
:1003F0002FBF81E090E0089581E080931502609323
:1004000014021092130282E086BB80916F0082601A
:1004100080936F00809180008F7B80688093800044
:1004200080918400909185004096909389008093FC
:100430008800DECF90E080E00895FC01808191810A
:10044000009711F00C9461070895CF93DF93EC01AE
:1004500060E08E810E94B60061E08E810E94B6004D
:1004600060E08E810E94B6008BE891E00197F1F781
:10047000DF91CF910895CF92DF92EF92FF920F9389
:100480001F93CF93DF936C017C0187E0E80EF11C92
:10049000D0E0C0E0062F10E0B8010C2E02C0759528
:1004A00067950A94E2F76170F70181917F010E94DC
:1004B000B6002196C430D10579F7C601DF91CF91FE
:1004C0001F910F91FF90EF90DF90CF900C94250239
:1004D000CF92DF92EF92FF920F931F93CF93DF9310
:1004E000EC01F62E642F8C810E94B6008D818F3F27
:1004F00019F060E00E94B6000F2D10E08F8584FF98
:1005000025C06E0187E0C80ED11CF12CE12CB8018A
:100510000E2C02C0759567950A94E2F76170F6019A
:1005200081916F010E94B600FFEFEF1AFF0A88E089
:10053000E816F10461F7CE01DF91CF911F910F9181
:10054000FF90EF90DF90CF900C942502B80184E0EB
:10055000759567958A95E1F7CE010E943B026F2D54
:10056000CE01DF91CF911F910F91FF90EF90DF901F
:10057000CF900C943B0240E0682F86E792E00C9409
:10058000680281E00E94BB028BE39FE10197F1F7D3
:100590000895CF93DF93823029F49091850298607B
:1005A000909385028093890210928A0280E480935E
:1005B0008B0280E180938C0280E580938D0261E064
:1005C00080917A020E94E40080917B028F3F19F0B3
:1005D00061E00E94E40061E080917C020E94E400FE
:1005E000C6E7D2E09E01265732408091850284FD05
:1005F0000BC084E090E021962817390744F461E0AD
:100600008E810E94E400EECF88E090E0F4CF8BE38F
:100610009DE00197F1F760E080917A020E94B600B8
:1006200060E080917C020E94B60080917B028F3F47
:1006300019F060E00E94B6008091850284FD34C00C
:1006400063E086E792E00E943B02CBE4D6E4CE0171
:100650000197F1F763E086E792E00E943B02219761
:10066000F1F763E086E792E00E943B0283E592E0C7
:100670000197F1F762E086E792E00E943B028091E9
:10068000850280620E94BB0284E0809386028CE037
:100690000E94BB020E94C10282E08093870286E032
:1006A000DF91CF910C94BB0280620E94BB028BE46D
:1006B00096E40197F1F78091850280620E94BB0267
:1006C00083E592E00197F1F78091850280620E94B4
:1006D000BB02D5CF41E00E94680281E090E008951E
:1006E0001F920F920FB60F9211242F933F938F9367
:1006F0009F93AF93BF9380916E0290916F02A091F0
:100700007002B091710230916D0223E0230F2D37FA
:1007100058F50196A11DB11D20936D0280936E02C4
:1007200090936F02A0937002B09371028091720255
:1007300090917302A0917402B09175020196A11D6F
:10074000B11D8093720290937302A0937402B093D0
:100750007502BF91AF919F918F913F912F910F9013
:100760000FBE0F901F90189526E8230F0296A11D2B
:10077000B11DD2CF1F920F920FB60F9211242F935B
:100780008F939F93EF93FF9380916F008B7F809364
:100790006F00809181008F7B8093810080911A028D
:1007A00020911902205890911802893020F49695D2
:1007B000922B8F5FFACF9093180280916C028F5F1B
:1007C000803508F080E020916B02281739F0E82F7F
:1007D000F0E0E55EFD4F908380936C0210921A0268
:1007E000809181008F7B8093810010921902FF918C
:1007F000EF919F918F912F910F900FBE0F901F90AF
:1008000018951F920F920FB60F9211242F933F93BA
:100810004F938F939F93EF93FF9320918600309196
:1008200087004091190280918100442349F18F7B18
:10083000809381001092190290911A02911127C0A1
:10084000411112C030938B0020938A0084E086BB54
:1008500080916F00846080936F0030931702209323
:10086000160281E080931A02FF91EF919F918F9180
:100870004F913F912F910F900FBE0F901F901895A1
:1008800080648093810080E880931902D5CF209105
:100890001902809118028695822B9F5F9930D8F3B8
:1008A0008093180280916F008B7F80936F008091FE
:1008B0006C028F5F803508F080E090916B02981792
:1008C00049F0E82FF0E090911802E55EFD4F90832B
:1008D00080936C02809181008F7B809381001092C5
:1008E000190210921A02C0CF1F920F920FB60F92E8
:1008F00011242F933F934F935F938F939F93EF9385
:10090000FF9380911502209114024091880050912C
:100910008900909113028A30F0F4322F31708930BF
:1009200009F431E026958F5F9317A9F39091800029
:10093000332371F0906C9093800050938900409322
:10094000880030931302209314028093150212C082
:100950009F7B9068F0CF90911202E09111029E135C
:1009600023C08A30A1F48BE0809315025093890054
:1009700040938800FF91EF919F918F915F914F91EC
:100980003F912F910F900FBE0F901F9018951092CE
:100990001502809180008F738093800080916F009A
:1009A0008D7F80936F00E6CFEF5FE43408F0E0E0E6
:1009B000E0931102F0E0E353FE4F90819093140214
:1009C00010921302909180009F7B9068909380001A
:1009D0008A3031F4509389004093880081E0B5CF8C
:1009E0008091840090918500409690938900809337
:1009F0008800F4CFEF92FF920F931F93CF93DF9372
:100A0000EC017B01198218821B821A821D821C82D2
:100A1000FB0101900020E9F731978F01061B170BAE
:100A2000B8016F5F7F4F90E080E00E94EA07009777
:100A3000B9F0998388831B830A832C813D81232B02
:100A400011F4FC0110821D830C83B7018881998108
:100A5000DF91CF911F910F91FF90EF900C94B00810
:100A600088819981009711F00E946107198218828C
:100A70001D821C821B821A82DF91CF911F910F91E0
:100A8000FF90EF900895789484B5826084BD84B51A
:100A9000816084BD85B5826085BD85B5816085BD79
:100AA00080916E00816080936E0010928100809131
:100AB00081008260809381008091810081608093B9
:100AC0008100809180008160809380008091B100DE
:100AD00084608093B1008091B00081608093B00009
:100AE00080917A00846080937A0080917A0082609D
:100AF00080937A0080917A00816080937A0080915F
:100B00007A00806880937A001092C10082E00E948F
:100B1000C9020E94C10249E050E06FE271E086E73D
:100B200092E00E944501C0E1D0E08CE10E94BB024E
:100B30000E9420014B015C0182E3C82ED12CE12CE4
:100B4000F12C0E942001681979098A099B09683EE5
:100B5000734081059105A8F321E0C21AD108E1088C
:100B6000F10888EE880E83E0981EA11CB11CC11408
:100B7000D104E104F10429F72197B9F60E94C102DA
:100B8000E1E0809189028111E0E0E195F0E0EA582E
:100B9000FD4F848980680E94BB024CE050E069E30D
:100BA00071E086E792E00E944501C0E0D0E0209726
:100BB000F1F30E940000FBCF10924E0110925201FF
:100BC000109251011092530189E291E090934D01EE
:100BD00080934C01E8E6F1E01082148213821582C2
:100BE000369681E0E43AF807B9F783E091E0909314
:100BF000AF018093AE0180E091E09093B1018093CA
:100C0000B00184E08093B20193E09093B30127E0B8
:100C100031E03093AD012093AC012AE030E0309315
:100C2000B5012093B40124EF31E03093B701209354
:100C3000B6011092BA011092B9011092A801109257
:100C4000A9011092AA011092AB011092B801109262
:100C50007902109278022DE131E0309377022093EF
:100C600076029BE090937A029FEF90937B029CE048
:100C700090937C0280937D0285E080937E0286E0E3
:100C800080937F0287E0809380021092810210920D
:100C9000820210928302109284021092850281E0F7
:100CA0000E94C90266E471E08BEB91E00E94FA04B5
:100CB0006AE471E081EC91E00E94FA046AE471E078
:100CC00087EC91E00C94FA0487EC91E00E941D02FD
:100CD00081EC91E00E941D028BEB91E00E941D02CD
:100CE00080916F008B7F80936F0080916F008F7D6C
:100CF00080936F0080916B0280936C02809115024B
:100D00008111FCCF80916F008D7F80936F000895DB
:100D10002F923F924F925F926F927F928F929F920B
:100D2000AF92BF92CF92DF92EF92FF920F931F93F9
:100D3000CF93DF93CDB7DEB7CA1BDB0B0FB6F894AA
:100D4000DEBF0FBECDBF09942A88398848885F84EA
:100D50006E847D848C849B84AA84B984C884DF805B
:100D6000EE80FD800C811B81AA81B981CE0FD11D3F
:100D70000FB6F894DEBF0FBECDBFED010895EE0FA4
:100D8000FF1F0590F491E02D09940F931F93CF93CB
:100D9000DF938230910510F482E090E0E0919002C0
:100DA000F091910230E020E0B0E0A0E0309799F4BB
:100DB0002115310509F44AC0281B390B24303105AF
:100DC000D8F58A819B816115710589F1FB019383B7
:100DD0008283FE0111C04081518102811381481735
:100DE0005907E0F04817590799F4109761F01296E7
:100DF0000C93129713961C933296CF01DF91CF91EB
:100E00001F910F9108950093900210939102F4CFD7
:100E10002115310551F04217530738F0A901DB01C4
:100E20009A01BD01DF01F801C1CFEF01F9CF909325
:100E3000910280939002CDCFFE01E20FF31F8193C8
:100E400091932250310939832883D7CF20918E0284
:100E500030918F02232B41F420911501309116011E
:100E600030938F0220938E02209113013091140150
:100E70002115310541F42DB73EB74091170150912E
:100E80001801241B350BE0918E02F0918F02E217BE
:100E9000F307A0F42E1B3F0B2817390778F0AC019D
:100EA0004E5F5F4F2417350748F04E0F5F1F50937A
:100EB0008F0240938E02819391939FCFF0E0E0E008
:100EC0009CCFCF93DF930097E9F0FC013297138218
:100ED0001282A0919002B0919102ED0130E020E0E9
:100EE0001097A1F420813181820F931F20918E02EF
:100EF00030918F022817390709F061C0F0938F02F3
:100F0000E0938E02DF91CF910895EA01CE17DF07BB
:100F1000E8F54A815B819E0141155105B1F7E90170
:100F2000FB83EA8349915991C40FD51FEC17FD0744
:100F300061F4808191810296840F951FE901998364
:100F40008883828193819B838A83F0E0E0E012961C
:100F50008D919C9113970097B9F52D913C91119724
:100F6000CD010296820F931F20918E0230918F0245
:100F70002817390739F6309751F5109291021092DF
:100F80009002B0938F02A0938E02BCCFD383C28312
:100F900040815181840F951FC817D90761F44E5FB6
:100FA0005F4F88819981480F591F518340838A81FF
:100FB0009B81938382832115310509F0B0CFF09393
:100FC0009102E09390029ECFFD01DC01C0CF13821D
:100FD0001282D7CFB0E0A0E0E0EFF7E00C948A06F1
:100FE0008C01009751F4CB010E94C5068C01C80109
:100FF000CDB7DEB7E0E10C94A606FC01E60FF71FC3
:101000009C0122503109E217F30708F49DC0D90171
:10101000CD91DC911197C617D70798F0C530D1054F
:1010200030F3CE0104978617970708F3C61BD70B3A
:101030002297C193D1936D937C93CF010E94610756
:10104000D6CF5B01AC1ABD0A4C018C0E9D1EA0913F
:101050009002B0919102512C412CF12CE12C10976F
:1010600031F580918E0290918F028815990509F0D3
:101070005CC04616570608F058C080911301909145
:101080001401009741F48DB79EB74091170150911C
:101090001801841B950BE817F90708F055C0F09369
:1010A0008F02E0938E02F90171836083A0CF8D914E
:1010B0009C91119712966C90129713967C901397AF
:1010C000A815B90559F56C0142E0C40ED11CCA142B
:1010D000DB0420F1AC014A195B09DA01129615977D
:1010E00080F06282738251834083D9016D937C9337
:1010F000E114F10471F0D7011396FC93EE9312976B
:1011000076CF22968C0F9D1FF90191838083F30186
:10111000EFCFF0939102E093900269CF4816590601
:1011200008F42C017D01D3019ACFCB010E94C506A2
:101130007C01009749F0AE01B8010E94A708C801E0
:101140000E946107870153CF10E000E050CFFB0100
:10115000DC0102C001900D9241505040D8F7089533
:10116000FB01DC0101900D920020E1F7089510E0F1
:10117000C2E6D0E004C0FE010E94BF062196C3363D
:08118000D107C9F7F894FFCF75
:10118800111213100F0E0D3132333435363738390A
:101198002A3023000092028000000000006A034504
:1011A800011A02DB0100000000D701D301AB014B9B
:1011B800484157554C455A410054617020796F7524
:0C11C80072207461670031323334000083
:00000001FF
