:100000000C9463000C948B000C948B000C942804CB
:100010000C9428040C9428040C948B000C948B00F2
:100020000C948B000C948B000C948B000C948B0024
:100030000C948B000C948B000C948B000C948B0014
:100040000C94DE030C948B000C948B000C948B00AE
:100050000C948B000C948B000C948B000C948B00F4
:100060000C948B000C948B000000000023002600F1
:10007000290000000000240027002A0000000000E2
:10008000250028002B0004040404040404040202D4
:100090000202020203030303030301020408102007
:1000A0004080010204081020010204081020000012
:1000B0000008000201000003040700000000000027
:1000C00000004206A80411241FBECFEFD8E0DEBF17
:1000D000CDBF22E0AAE5B1E001C01D92A336B20770
:1000E000E1F711E0A0E0B1E0E2EEF2E102C005903C
:1000F0000D92AA35B107D9F710E0C2E6D0E004C0EE
:100100002197FE010E946C07C136D107C9F70E94F2
:1001100019050C9464090C940000833081F028F4D4
:10012000813099F08230A9F008958730A9F08830A5
:10013000C9F08430B1F4809180008F7D03C080913C
:1001400080008F7780938000089584B58F7784BD79
:10015000089584B58F7DFBCF8091B0008F77809319
:10016000B00008958091B0008F7DF9CF1F93CF9399
:10017000DF93282F30E0F901E255FF4F8491F90118
:10018000E656FF4FD491F901EA57FF4FC491CC23B3
:10019000A9F0162F81110E948D00EC2FF0E0EE0FD8
:1001A000FF1FE458FF4FA591B4918FB7F894EC91DD
:1001B000111108C0D095DE23DC938FBFDF91CF9162
:1001C0001F910895DE2BF8CFCF93DF9390E0FC01D1
:1001D000E656FF4F24918A579F4FFC018491882354
:1001E000C9F090E0880F991FFC01EE58FF4FA591D0
:1001F000B491FC01E458FF4FC591D49161110DC039
:100200009FB7F8948C91209582238C938881282322
:1002100028839FBFDF91CF910895623051F49FB73B
:10022000F8943C91822F809583238C93E8812E2B28
:10023000EFCF8FB7F894EC912E2B2C938FBFEACF92
:100240003FB7F8948091430290914402A0914502F7
:10025000B091460226B5A89B05C02F3F19F0019624
:10026000A11DB11D3FBFBA2FA92F982F8827BC0110
:10027000CD01620F711D811D911D42E0660F771F38
:10028000881F991F4A95D1F708958F929F92AF9238
:10029000BF92CF92DF92EF92FF924B015C010E94DE
:1002A00020016B017C010E9420016C197D098E09DF
:1002B0009F09683E734081059105A8F321E0821AE9
:1002C0009108A108B10888EEC80E83E0D81EE11C91
:1002D000F11C81149104A104B10429F7FF90EF905F
:1002E000DF90CF90BF90AF909F908F900895AF9286
:1002F000BF92CF92DF92EF92FF920F931F93CF9313
:10030000DF936C017B018B01040F151FEB015E0174
:10031000AE18BF08C017D10759F06991D601ED9109
:10032000FC910190F081E02DC6010995892B79F7A8
:10033000C501DF91CF911F910F91FF90EF90DF905A
:10034000CF90BF90AF90089520911D0230911E0272
:100350002817390771F490911B0280911C0298179D
:1003600041F0E0911B02F0E0E552FE4F808190E009
:1003700008958FEF9FEF08950895EF92FF920F93E6
:100380001F93CF93DF93DC015C96ED90FC905D971B
:10039000E114F10479F481E090E013969C938E933C
:1003A000129790E080E0DF91CF911F910F91FF9025
:1003B000EF9008955196ED91FC91529750968C9143
:1003C0005097982F90950FB75E962C915E97122FAD
:1003D000127021FD6095F8942081112319F1282BCA
:1003E0002083E7012197F1F728E0462F50E0308184
:1003F00060FF1AC0382B3083E7012197F1F7BA016B
:1004000075956795215089F7112381F080818923A3
:1004100080830FBF5C968D919C910197F1F781E0ED
:1004200090E0C1CF2923DCCF3923E5CF9081892B00
:10043000EFCF20911D0230911E022817390761F479
:1004400080911C0220911B0290E0805C9F4F821BD8
:1004500091098F739927089590E080E00895209185
:100460001D0230911E0228173907B9F490911B0222
:1004700080911C02981789F0E0911B02F0E0E55290
:10048000FE4F808120911B0230E02F5F3F4F2F7382
:10049000332720931B0290E008958FEF9FEF08957C
:1004A000CF93DF9370E0FB01E255FF4F8491FB0196
:1004B000E656FF4FD4916A577F4FFB01C491CC237E
:1004C000A1F081110E948D00EC2FF0E0EE0FFF1FD4
:1004D000E859FF4FA591B491EC91ED2381E090E0B4
:1004E00009F480E0DF91CF91089580E090E0FACFA9
:1004F000862F642F0C94B600862F642F0C94E40092
:10050000089590E080E00895FB0101900020E9F754
:100510003197AF01461B570BDC01ED91FC91028036
:10052000F381E02D0994CF93DF93EC0160E08E819D
:100530000E94B60061E08E810E94B60060E08E816C
:100540000E94B6008BE891E00197F1F7DF91CF911F
:100550000895CF92DF92EF92FF920F931F93CF9364
:10056000DF936C017C0187E0E80EF11CD0E0C0E075
:10057000062F10E0B8010C2E02C0759567950A94FD
:10058000E2F76170F70181917F010E94B600219628
:10059000C430D10579F7C601DF91CF911F910F913A
:1005A000FF90EF90DF90CF900C949302CF92DF9268
:1005B000EF92FF920F931F93CF93DF93EC01F62EF0
:1005C000642F8C810E94B6008D818F3F19F060E00E
:1005D0000E94B6000F2D10E08F8584FF25C06E01AC
:1005E00087E0C80ED11CF12CE12CB8010E2C02C002
:1005F000759567950A94E2F76170F60181916F0134
:100600000E94B600FFEFEF1AFF0A88E0E816F10437
:1006100061F7CE01DF91CF911F910F91FF90EF9085
:10062000DF90CF900C949302B80184E075956795A4
:100630008A95E1F7CE010E94A9026F2DCE01DF91CC
:10064000CF911F910F91FF90EF90DF90CF900C947E
:10065000A90240E0682F87E492E00C94D60281E082
:100660000E9429038BE39FE10197F1F70895CF934F
:10067000DF93823029F4909156029860909356024D
:1006800080935A0210925B0280E480935C0280E1C6
:1006900080935D0280E580935E0261E080914B0271
:1006A0000E94E40080914C028F3F19F061E00E94AB
:1006B000E40061E080914D020E94E400C7E4D2E0D2
:1006C0009E01275432408091560284FD0BC084E085
:1006D00090E021962817390744F461E08E810E944A
:1006E000E400EECF88E090E0F4CF8BE39DE001974B
:1006F000F1F760E080914B020E94B60060E08091CB
:100700004D020E94B60080914C028F3F19F060E0CC
:100710000E94B6008091560284FD34C063E087E4F5
:1007200092E00E94A902CBE4D6E4CE010197F1F752
:1007300063E087E492E00E94A9022197F1F763E069
:1007400087E492E00E94A90283E592E00197F1F725
:1007500062E087E492E00E94A902809156028062E2
:100760000E94290384E0809357028CE00E942903B1
:100770000E942F0382E08093580286E0DF91CF91A0
:100780000C94290380620E9429038BE496E401976C
:10079000F1F78091560280620E94290383E592E07E
:1007A0000197F1F78091560280620E942903D5CF0C
:1007B00041E00E94D60281E090E008951F920F92DE
:1007C0000FB60F9211242F933F938F939F93AF9364
:1007D000BF9380913F0290914002A0914102B0915D
:1007E000420230913E0223E0230F2D3758F5019647
:1007F000A11DB11D20933E0280933F0290934002C1
:10080000A0934102B093420280914302909144022E
:10081000A0914502B09146020196A11DB11D8093A1
:10082000430290934402A0934502B0934602BF91C5
:10083000AF919F918F913F912F910F900FBE0F908D
:100840001F90189526E8230F0296A11DB11DD2CF47
:100850001F920F920FB60F9211242F933F934F9335
:100860005F936F937F938F939F93AF93BF93EF9318
:10087000FF93E0911D02F0911E02309749F0A6858A
:10088000B7858585968D91FF14C09C918923A1F42D
:10089000FF91EF91BF91AF919F918F917F916F9158
:1008A0005F914F913F912F910F900FBE0F901F902E
:1008B00018959C91892361F7A389B4899C918589B6
:1008C000809589238C93868997890197F1F7608DAC
:1008D000718DA685B785558538E020E0CB0101975D
:1008E000F1F7822F90E095958795282F4C9145231D
:1008F00009F02068315091F7868D81FD2095809117
:100900001C0290E001968F73992730911B023817D3
:1009100099F0A0911C02B0E0A552BE4F2C93809399
:100920001C02828D938D0197F1F7A389B4898C9174
:100930009589892B8C93ACCF868D8160868FF1CF82
:10094000FC0180819181009711F00C940E080895AC
:1009500085ED91E00E94A0048FEC91E00E94A0043C
:1009600089EC91E00E94A00483E391E0909320023F
:1009700080931F0280911D0290911E028F51924020
:1009800071F4E0913202F09133029081809134024F
:1009900080958923808310921E0210921D02089573
:1009A000EF92FF920F931F93CF93DF93EC017B01A4
:1009B000198218821B821A821D821C82FB010190FF
:1009C0000020E9F731978F01061B170BB8016F5F05
:1009D0007F4F90E080E00E9497080097B9F09983DC
:1009E00088831B830A832C813D81232B11F4FC0116
:1009F00010821D830C83B70188819981DF91CF918B
:100A00001F910F91FF90EF900C945D09888199815F
:100A1000009711F00E940E08198218821D821C8214
:100A20001B821A82DF91CF911F910F91FF90EF905F
:100A30000895789484B5826084BD84B5816084BD56
:100A400085B5826085BD85B5816085BD80916E006C
:100A5000816080936E00109281008091810082609D
:100A600080938100809181008160809381008091DA
:100A700080008160809380008091B10084608093C9
:100A8000B1008091B00081608093B00080917A00C5
:100A9000846080937A0080917A00826080937A00EB
:100AA00080917A00816080937A0080917A008068DA
:100AB00080937A001092C10010923A02109239028B
:100AC00010923802109237021092360210923502BC
:100AD00082E490E090933C0280933B0290912B0241
:100AE000963108F047C02FE030E030933602209373
:100AF000350220E430E0309338022093370227E2B9
:100B000030E030933A02209339022091680084E06B
:100B1000983048F031E09E3008F430E081E001C0C8
:100B2000880F3A95EAF7822B809368002DE630E033
:100B3000983050F02BE630E09E3030F02CE630E07C
:100B4000963110F030E020E03093330220933202EF
:100B5000292F30E0983008F083C081E001C0880F71
:100B60009A95EAF78093340280913B0290913C027F
:100B70000197F1F78091390290913A02892B49F15E
:100B8000E0911D02F0911E0282E0EF31F80709F1B9
:100B9000309739F0A389B4899C9185898095892300
:100BA0008C9380913D028E7F80933D0210921C02B7
:100BB00010921B028FE192E090931E0280931D021F
:100BC000E0913202F0913302808190913402892BBE
:100BD000808382E00E9437030E942F0361E471E06A
:100BE00087E492E00E94840268EE73E080E090E087
:100BF0000E944501C0E1D0E08CE10E94290362E33C
:100C000070E080E090E00E9445012197A9F70E94E2
:100C10002F03E1E080915A028111E0E0E195F0E0DC
:100C2000E95BFD4F848980680E942903C0E0D0E021
:100C30008FE192E00E94190218161906F4F48FE170
:100C400092E00E942F026BE471E08FE192E00E943B
:100C5000840262E571E08FE192E00E948402E8CFB5
:100C60009E3040F42850310981E001C0880F2A9558
:100C7000EAF778CF2E503109F7CF2097C9F20E94BA
:100C80000000D6CF109222021092210288EE93E04B
:100C9000A0E0B0E08093230290932402A093250269
:100CA000B093260283E391E09093200280931F0289
:100CB00010923602109235021092380210923702CA
:100CC00010923A021092390210923C0210923B02AA
:100CD00060913D026E7F626060933D026695617037
:100CE00081E068278FE00E94B60061E08FE00E94FB
:100CF000E400E9EAF0E0E491E0932F02E5E9F0E0B6
:100D0000E491F0E0EE0FFF1FE458FF4F85919491BE
:100D1000909331028093300260E08EE00E94E40004
:100D200080913D0281FD04C061E08EE00E94B6002A
:100D30008EE080932B02E8EAF0E0E491E0932C024D
:100D4000E4E9F0E0E491F0E0EE0FFF1FE859FF4F17
:100D50008591949190932E0280932D0210925C01C4
:100D60001092600110925F011092610189E291E09E
:100D700090935B0180935A01E6E7F1E010821482C0
:100D800013821582369681E0E23BF807B9F783E0DB
:100D900091E09093BD018093BC0180E091E090933D
:100DA000BF018093BE0194E09093C00183E08093E3
:100DB000C10127E031E03093BB012093BA012AE062
:100DC00030E03093C3012093C20124EF31E030932F
:100DD000C5012093C4011092C8011092C70110925E
:100DE000B6011092B7011092B8011092B901109299
:100DF000C60110924A02109249022DE131E030936F
:100E000048022093470227E020934B022FEF2093C4
:100E10004C0226E020934D0225E020934E02909351
:100E20004F028093500282E080935102109252024E
:100E300010925302109254021092550210925602D0
:100E400081E00E94370365E571E089EC91E00E9442
:100E5000D00464E571E08FEC91E00E94D00464E579
:100E600071E085ED91E00C94D0042F923F924F9267
:100E70005F926F927F928F929F92AF92BF92CF922A
:100E8000DF92EF92FF920F931F93CF93DF93CDB733
:100E9000DEB7CA1BDB0B0FB6F894DEBF0FBECDBFAB
:100EA00009942A88398848885F846E847D848C847C
:100EB0009B84AA84B984C884DF80EE80FD800C8185
:100EC0001B81AA81B981CE0FD11D0FB6F894DEBF68
:100ED0000FBECDBFED010895EE0FFF1F0590F491F9
:100EE000E02D09940F931F93CF93DF9382309105E8
:100EF00010F482E090E0E0916102F091620230E053
:100F000020E0B0E0A0E0309799F42115310509F414
:100F10004AC0281B390B24303105D8F58A819B81C2
:100F20006115710589F1FB0193838283FE0111C074
:100F3000408151810281138148175907E0F0481719
:100F4000590799F4109761F012960C931297139623
:100F50001C933296CF01DF91CF911F910F9108958D
:100F60000093610210936202F4CF2115310551F014
:100F70004217530738F0A901DB019A01BD01DF01D7
:100F8000F801C1CFEF01F9CF909362028093610223
:100F9000CDCFFE01E20FF31F8193919322503109CF
:100FA00039832883D7CF20915F0230916002232BB1
:100FB00041F4209115013091160130936002209385
:100FC0005F0220911301309114012115310541F484
:100FD0002DB73EB74091170150911801241B350BD6
:100FE000E0915F02F0916002E217F307A0F42E1B7C
:100FF0003F0B2817390778F0AC014E5F5F4F24177D
:10100000350748F04E0F5F1F5093600240935F0218
:10101000819391939FCFF0E0E0E09CCFCF93DF935B
:101020000097E9F0FC01329713821282A0916102CD
:10103000B0916202ED0130E020E01097A1F4208130
:101040003181820F931F20915F0230916002281737
:10105000390709F061C0F0936002E0935F02DF910D
:10106000CF910895EA01CE17DF07E8F54A815B8149
:101070009E0141155105B1F7E901FB83EA834991CE
:101080005991C40FD51FEC17FD0761F48081918140
:101090000296840F951FE901998388838281938149
:1010A0009B838A83F0E0E0E012968D919C911397E8
:1010B0000097B9F52D913C911197CD010296820FC1
:1010C000931F20915F02309160022817390739F68B
:1010D000309751F51092620210926102B093600253
:1010E000A0935F02BCCFD383C28340815181840F20
:1010F000951FC817D90761F44E5F5F4F88819981AA
:10110000480F591F518340838A819B819383828337
:101110002115310509F0B0CFF0936202E09361022E
:101120009ECFFD01DC01C0CF13821282D7CFB0E089
:10113000A0E0EDE9F8E00C9437078C01009751F43A
:10114000CB010E9472078C01C801CDB7DEB7E0E188
:101150000C945307FC01E60FF71F9C012250310944
:10116000E217F30708F49DC0D901CD91DC911197E6
:10117000C617D70798F0C530D10530F3CE010497D4
:101180008617970708F3C61BD70B2297C193D193F5
:101190006D937C93CF010E940E08D6CF5B01AC1AF1
:1011A000BD0A4C018C0E9D1EA0916102B09162029D
:1011B000512C412CF12CE12C109731F580915F02DC
:1011C000909160028815990509F05CC04616570693
:1011D00008F058C08091130190911401009741F4D8
:1011E0008DB79EB74091170150911801841B950B44
:1011F000E817F90708F055C0F0936002E0935F022A
:10120000F90171836083A0CF8D919C911197129603
:101210006C90129713967C901397A815B90559F501
:101220006C0142E0C40ED11CCA14DB0420F1AC01F5
:101230004A195B09DA011296159780F0628273826F
:1012400051834083D9016D937C93E114F10471F0D3
:10125000D7011396FC93EE93129776CF22968C0FBC
:101260009D1FF90191838083F301EFCFF093620218
:10127000E093610269CF4816590608F42C017D01FC
:10128000D3019ACFCB010E9472077C01009749F0ED
:10129000AE01B8010E945409C8010E940E088701DE
:1012A00053CF10E000E050CFFB01DC0102C0019001
:1012B0000D9241505040D8F70895FB01DC01019098
:1012C0000D920020E1F7089510E0C2E6D0E004C0DE
:1012D000FE010E946C072196C336D107C9F7F89426
:0212E000FFCF3E
:1012E2000C0D130B0A0908313233343536373839CD
:1012F2002A302300006302800000000000D8037738
:101302000181028002000000007C0278025002008B
:10131200000000BD0177018102BC0119022F02A465
:10132200014B484157554C455A410044656E696529
:0A13320064000D0A0031323334006C
:00000001FF
