:020000040000FA
:100000000C9463000C948B000C948B000C948B006C
:100010000C948B000C948B000C948B000C948B0034
:100020000C948B000C948B000C948A050C94340671
:100030000C9443050C948B000C948B000C948B0057
:100040000C94F9040C948B000C948B000C948B0092
:100050000C948B000C948B000C948B000C948B00F4
:100060000C948B000C948B000000000024002700EF
:100070002A0000000000250028002B0000000000DE
:1000800023002600290004040404040404040202DA
:100090000202020203030303030301020408102007
:1000A0004080010204081020010204081020000012
:1000B0000008000201000003040700000000000027
:1000C0000000F609940A11241FBECFEFD8E0DEBF6E
:1000D000CDBF23E0ACEAB1E001C01D92A530B2076C
:1000E000E1F711E0A0E0B1E0E6E0FAE102C005903E
:1000F0000D92AC3AB107D9F710E0C2E6D0E004C0E7
:100100002197FE010E94F50AC136D107C9F70E9466
:1001100006070C94F60C0C94000096E0899FD00121
:100120001124A658BD4F90967C936E935F9791E0F3
:1001300091969C939197E091E702F091E80290915B
:10014000E602992339F0309751F0811108C080916F
:1001500096020994309719F05C968C91FACF089525
:10016000CF92DF92EF92FF920F931F9396E0899FB9
:10017000F0011124E658FD4F11A2278D30A1213046
:10018000310551F178F02230310509F451C02330A6
:10019000310509F452C01F910F91FF90EF90DF904D
:1001A000CF9008956623B9F361E070E00E948D005E
:1001B0002FB7F8948091760290917702A0917802FF
:1001C000B09179022FBF8093D2029093D302A09373
:1001D000D402B093D502DFCF9FB7F894C0907602D7
:1001E000D0907702E0907802F09079029FBF009162
:1001F000D2021091D3022091D4023091D502C01ABC
:10020000D10AE20AF30A0091E4021091E50230E01B
:1002100020E00C151D052E053F0550F462E070E04E
:100220001F910F91FF90EF90DF90CF900C948D0075
:100230006111B1CF63E070E0F3CF70E060E0F0CF28
:10024000833081F028F4813099F08230A9F008954C
:100250008730A9F08830C9F08430B1F480918000F3
:100260008F7D03C0809180008F77809380000895F8
:1002700084B58F7784BD089584B58F7DFBCF809141
:10028000B0008F778093B00008958091B0008F7D8B
:10029000F9CFCF93DF93282F30E0F901E255FF4FDC
:1002A0008491F901E656FF4FD491F901EA57FF4FC7
:1002B000C491CC23A1F081110E942001EC2FF0E029
:1002C000EE0FFF1FE458FF4FA591B491EC91ED2381
:1002D00081E090E009F480E0DF91CF91089580E023
:1002E00090E0FACF1F93CF93DF93282F30E0F901EE
:1002F000E255FF4F8491F901E656FF4FD491F90181
:10030000EA57FF4FC491CC23A9F0162F81110E9408
:100310002001EC2FF0E0EE0FFF1FEE58FF4FA591EC
:10032000B4918FB7F894EC91111108C0D095DE23E9
:10033000DC938FBFDF91CF911F910895DE2BF8CF13
:10034000CF93DF9390E0FC01E656FF4F24918A574C
:100350009F4FFC0184918823C9F090E0880F991F7A
:10036000FC01E859FF4FA591B491FC01EE58FF4FF5
:10037000C591D49161110DC09FB7F8948C912095CF
:1003800082238C938881282328839FBFDF91CF917C
:100390000895623051F49FB7F8943C91822F809574
:1003A00083238C93E8812E2BEFCF8FB7F894EC91B9
:1003B0002E2B2C938FBFEACF3FB7F8948091720217
:1003C00090917302A0917402B091750226B5A89B1A
:1003D00005C02F3F19F00196A11DB11D3FBFBA2FD7
:1003E000A92F982F8827BC01CD01620F711D811D97
:1003F000911D42E0660F771F881F991F4A95D1F71C
:1004000008958F929F92AF92BF92CF92DF92EF9218
:10041000FF924B015C010E94DC016B017C010E9498
:10042000DC016C197D098E099F09683E73408105C6
:100430009105A8F321E0821A9108A108B10888EE7D
:10044000C80E83E0D81EE11CF11C81149104A104A4
:10045000B10429F7FF90EF90DF90CF90BF90AF905D
:100460009F908F900895862F642F0C94A001862F63
:10047000642F0C947201862F0C944901AF92BF92A5
:10048000CF92DF92EF92FF920F931F93CF93DF9360
:100490006C017B018B01040F151FEB015E01AE188F
:1004A000BF08C017D10759F06991D601ED91FC91B1
:1004B0000190F081E02DC6010995892B79F7C501DE
:1004C000DF91CF911F910F91FF90EF90DF90CF9030
:1004D000BF90AF90089550914F0240914E02852FEA
:1004E00090E0242F30E0541718F0821B930B0895EE
:1004F000805B9F4FFACF80914F02E0914E028E17A2
:1005000051F0EF5FE03508F0E0E0F0E0E250FE4F40
:10051000808190E008958FEF9FEF089580914F02C2
:1005200090914E02891769F09F5F903508F090E036
:10053000E92FF0E0E250FE4F808190934E0290E070
:1005400008958FEF9FEF089508958091F401811130
:10055000FCCF08958091F1018F5F843408F080E032
:100560009091F0019817E1F32FB7F8949091F4016E
:10057000992359F0E82FF0E0E455FE4F6083809313
:10058000F1012FBF81E090E0089581E08093F401B4
:100590006093F3011092F20182E086BB80916F00BC
:1005A000826080936F00809180008F7B8068809351
:1005B00080008091840090918500409690938900FE
:1005C00080938800DECF90E080E00895FB010190E9
:1005D0000020E9F73197AF01461B570BDC01ED9185
:1005E000FC910280F381E02D0994FC0180819181CE
:1005F000009711F00C94970B0895CF93DF93EC01C3
:1006000060E08E810E94720161E08E810E94720121
:1006100060E08E810E9472018BE891E00197F1F712
:10062000DF91CF910895CF92DF92EF92FF920F93D7
:100630001F93CF93DF936C017C0187E0E80EF11CE0
:10064000D0E0C0E0062F10E0B8010C2E02C0759576
:1006500067950A94E2F76170F70181917F010E942A
:1006600072012196C430D10579F7C601DF91CF918F
:100670001F910F91FF90EF90DF90CF900C94FD02AF
:10068000CF92DF92EF92FF920F931F93CF93DF935E
:10069000EC01F62E642F8C810E9472018D818F3FB8
:1006A00019F060E00E9472010F2D10E08F8584FF29
:1006B00025C06E0187E0C80ED11CF12CE12CB801D9
:1006C0000E2C02C0759567950A94E2F76170F601E9
:1006D00081916F010E947201FFEFEF1AFF0A88E01B
:1006E000E816F10461F7CE01DF91CF911F910F91D0
:1006F000FF90EF90DF90CF900C94FD02B80184E062
:10070000759567958A95E1F7CE010E9413036F2DC9
:10071000CE01DF91CF911F910F91FF90EF90DF906D
:10072000CF900C94130340E0682F89EE92E00C9474
:10073000400381E00E9493038BE39FE10197F1F76F
:100740000895CF93DF93823029F49091F802986056
:100750009093F8028093FC021092FD0280E4809353
:10076000FE0280E18093FF0280E58093000361E058
:100770008091ED020E94A0018091EE028F3F19F05E
:1007800061E00E94A00161E08091EF020E94A0015F
:10079000C9EED2E09E01295E32408091F80284FDCC
:1007A0000BC084E090E021962817390744F461E0FB
:1007B0008E810E94A001EECF88E090E0F4CF8BE321
:1007C0009DE00197F1F760E08091ED020E947201D7
:1007D00060E08091EF020E9472018091EE028F3FF3
:1007E00019F060E00E9472018091F80284FD34C02B
:1007F00063E089EE92E00E941303CBE4D6E4CE01DD
:100800000197F1F763E089EE92E00E9413032197CC
:10081000F1F763E089EE92E00E94130383E592E032
:100820000197F1F762E089EE92E00E941303809154
:10083000F80280620E94930384E08093F9028CE0C6
:100840000E9493030E94990382E08093FA0286E05B
:10085000DF91CF910C94930380620E9493038BE409
:1008600096E40197F1F78091F80280620E94930369
:1008700083E592E00197F1F78091F80280620E948F
:100880009303D5CFCF93DF9310926F001092800027
:1008900081E88093810083E896E09093F80180934B
:1008A000F7018BE39CE39093FA018093F90162E0F6
:1008B00088E00E94A00161E089E00E94720161E08D
:1008C00089E00E94A0011092FD0110924F02109247
:1008D0004E021092F4011092F1011092F00180E2A8
:1008E00086BB80936F0082E00E94A1030E9499035F
:1008F00061E471E089EE92E00E94E60268EE73E046
:1009000080E090E00E940102C0E1D0E08CE10E9412
:10091000930362E370E080E090E00E94010221977F
:10092000A9F70E949903E1E08091FC028111E0E0C7
:10093000E195F0E0E751FD4F848980680E949303C0
:100940006BE471E089EE92E0DF91CF910C94E602C6
:1009500041E00E94400381E090E008950F931F93CF
:10096000CF93DF93EC0188819981009759F02A8118
:100970003B812617370730F081E0DF91CF911F913F
:100980000F9108958B016F5F7F4F0E94200C00979D
:1009900059F0998388831B830A832C813D81232B03
:1009A00059F7FC011082E8CF80E0E7CFCF93DF93C7
:1009B000EC0170E060E00E94AE0428813981811171
:1009C0000FC02115310519F0C9010E94970B19823A
:1009D00018821D821C821B821A82DF91CF9108959A
:1009E0001D821C826AE571E0C901DF91CF910C94F0
:1009F000EF0C1F920F920FB60F9211242F933F937B
:100A00008F939F93AF93BF938091760290917702DB
:100A1000A0917802B09179023091710223E0230F06
:100A20002D3758F50196A11DB11D209371028093B9
:100A3000760290937702A0937802B0937902809126
:100A4000720290917302A0917402B09175020196A6
:100A5000A11DB11D8093720290937302A093740242
:100A6000B0937502BF91AF919F918F913F912F915C
:100A70000F900FBE0F901F90189526E8230F029637
:100A8000A11DB11DD2CF1F920F920FB60F9211244C
:100A90002F938F939F93EF93FF9380916F008B7FA2
:100AA00080936F00809181008F7B80938100809183
:100AB000FD012091FC0120589091FB01893020F428
:100AC0009695922B8F5FFACF9093FB0180914F0206
:100AD0008F5F803508F080E020914E02281739F0B2
:100AE000E82FF0E0E250FE4F908380934F02109287
:100AF000FD01809181008F7B809381001092FC0129
:100B0000FF91EF919F918F912F910F900FBE0F90BA
:100B10001F9018951F920F920FB60F9211242F93CA
:100B20003F934F935F936F937F938F939F93AF9375
:100B3000BF93EF93FF93809186009091870040913F
:100B4000FC01209181004423F1F12F7B209381004F
:100B50001092FC013091FD0131113CC0411122C0C5
:100B60002091F9013091FA01280F391F30938B0041
:100B700020938A0024E026BB20916F0024602093FC
:100B80006F002091F7013091F801820F931F369585
:100B90002795280F391F3093F6012093F50181E046
:100BA0008093FD01FF91EF91BF91AF919F918F9144
:100BB0007F916F915F914F913F912F910F900FBE59
:100BC0000F901F90189520642093810020E82093B7
:100BD000FC01C0CF4091F5015091F6016091F70101
:100BE0007091F801DB01A095B0952091FB01E09197
:100BF000FC01841B950BA817B90768F126952E2BCD
:100C0000460F571F3F5F861B970B3930A0F3209389
:100C1000FB0180916F008B7F80936F0080914F026A
:100C20008F5F803508F080E090914E02981749F070
:100C3000E82FF0E09091FB01E250FE4F908380930B
:100C40004F02809181008F7B809381001092FC0184
:100C50001092FD01A7CF2093FB015093F601409322
:100C6000F5013093FD019ECF1F920F920FB60F92A8
:100C700011242F933F934F935F936F937F938F93A1
:100C80009F93EF93FF932091F4016091F301809182
:100C90008800909189004091F7015091F8013091BE
:100CA000F2012A3070F5840F951F762F717029306C
:100CB00009F471E066952F5F371799F33091800042
:100CC0007723E1F0306C309380009093890080931B
:100CD00088007093F2016093F3012093F401FF9177
:100CE000EF919F918F917F916F915F914F913F9184
:100CF0002F910F900FBE0F901F9018953F7B30687B
:100D0000E2CF3091F101E091F0013E1319C02A3099
:100D100051F42BE02093F401840F951F90938900E8
:100D200080938800DCCF1092F401809180008F7353
:100D30008093800080916F008D7F80936F00CFCF74
:100D4000EF5FE43408F0E0E0E093F001F0E0E45518
:100D5000FE4F30813093F3011092F2013091800008
:100D60003F7B3068309380002A3071F42091F70186
:100D70003091F801820F931F90938900809388002F
:100D800081E08093F401ABCF809184009091850045
:100D90004096F2CFEF92FF920F931F93CF93DF9382
:100DA000EC017B01198218821B821A821D821C822F
:100DB000FB0101900020E9F731978F01061B170B0B
:100DC000B8010E94AE0428813981811113C0211518
:100DD000310519F0C9010E94970B198218821D82F2
:100DE0001C821B821A82DF91CF911F910F91FF907D
:100DF000EF9008951D830C83B701C901DF91CF9156
:100E00001F910F91FF90EF900C94EF0CCF93DF9315
:100E100000D0CDB7DEB7789484B5826084BD84B548
:100E2000816084BD85B5826085BD85B5816085BDE5
:100E300080916E00816080936E001092810080919D
:100E40008100826080938100809181008160809325
:100E50008100809180008160809380008091B1004A
:100E600084608093B1008091B00081608093B00075
:100E700080917A00846080937A0080917A00826009
:100E800080937A0080917A00816080937A008091CB
:100E90007A00806880937A001092C1000E94420418
:100EA000412C512C3201439488248A94982C85E655
:100EB00092E00E946B02892B09F44DC285E692E014
:100EC0000E948E0200916302109164020F5F1F4F17
:100ED000109364020093630289831A82E090610296
:100EE000F09062025FEFE51AF50AB7018DE592E036
:100EF0000E94AE04882399F020915D0230915E0239
:100F00008091610290916202BE016F5F7F4F820FFC
:100F1000931F0E94EF0CF0926202E09261020C308B
:100F2000110529F6409161025091620260915D02C3
:100F300070915E0285E692E00E943E0268E571E0F3
:100F400085E692E00E94E602809161029091620241
:100F5000892B09F4F3C16BE571E080915D029091FA
:100F60005E020E94E60C892B09F0E8C10E949903F9
:100F700068E671E085E692E00E94E60268E571E0CD
:100F800085E692E00E94E60264EF71E080E090E086
:100F90000E9401020E94990367E771E089EE92E0E6
:100FA0000E94E602E091FC02E23008F03EC0E1500F
:100FB000F0E0E751FD4F848980680E94930381E04F
:100FC0008093E6028FB7F8944091760250917702B1
:100FD00060917802709179028FBF8091D6029091D2
:100FE000D702A091D802B091D902481B590B6A0BC5
:100FF0007B0B8091E2029091E302B0E0A0E08417C5
:101000009507A607B707D8F610E08091E0021817F9
:1010100070F4E091DC02F091DD02E10FF11D62E07D
:1010200080810E94A0011F5FF0CFE1E0C1CF312C91
:101030008091E102381608F061C0E32CF12CE091B8
:10104000DE02F091DF02EE0DFF1D61E080810E9463
:10105000A001E091DE02F091DF02EE0DFF1D60E0E5
:1010600080810E947201D301C201032C04C0880F49
:10107000991FAA1FBB1F0A94D2F75C016C01C09490
:10108000D094212C8091E002281608F5022D10E062
:10109000E091DC02F091DD02E00FF11F80810E94FF
:1010A00049010C5F1F4F000F111FF801E658FD4F5B
:1010B000892B41F4808191818A299B2991838083A6
:1010C0002394E0CF808191818C219D21F7CFE09105
:1010D000DE02F091DF02EE0DFF1D61E080810E94D3
:1010E00072018091DE029091DF02E80EF91E60E04D
:1010F000F70180810E94A00133949ACF0AE712E0A1
:101100007801F701878D90A1892B21F4148E968E9A
:10111000858E11A2F6E0EF0EF11C86EB92E08E15A3
:101120009F0579F7B12C8091E002B81608F053C002
:10113000A12CCB2CD12CCC0CDD1CF601EE57FD4F95
:101140006F012091E102A21608F043C0F601608110
:1011500071810A2C02C0769567950A94E2F7B29ED7
:10116000900111242A0D311DEAE7F2E080E0458D5F
:10117000568D2417350709F404C18F5F36968A30DF
:10118000B1F760FF24C0EAE7F2E090E080E0448D30
:10119000411118C0E091DA02F091DB02E20FF31F77
:1011A000408156E0589FF001599FF00D1124E658F8
:1011B000FD4F448F368F258F10A2178E61E00E945D
:1011C000B00005C0019636968A30910501F7A394C8
:1011D000B8CFB394A8CF80E0F80191A19111892FE5
:1011E0000A5F1F4FE016F106B9F79FB7F8944091D8
:1011F00076025091770260917802709179029FBFD8
:101200004093D6025093D7026093D8027093D902CC
:10121000882309F4D4CE80919B02882309F4CFCE91
:101220008091990290919A02019709F0C8CE80911D
:101230009602833209F053C080915C02882309F43E
:10124000BECE20915A0230915B028091540290915F
:10125000550228173907C1F4809156029091570220
:101260006091500270915102009709F48CC0611591
:10127000710539F4232B09F494C0FC01808190E0BE
:101280008DC00E94E60C8AC00E94990368E971E053
:1012900089EE92E00E94E60268EE73E080E090E062
:1012A0000E9401020E94990367E771E089EE92E0D3
:1012B0000E94E602E091FC02E23078F4E150F0E0B6
:1012C000E751FD4F848980680E94930386E592E090
:1012D0000E94D60410925C0272CEE1E0F0CF882327
:1012E00009F46DCE89831A8200915A0210915B0233
:1012F0000F5F1F4FB80186E592E00E94AE0488237D
:1013000099F0209156023091570280915A029091A3
:101310005B02BE016F5F7F4F820F931F0E94EF0C35
:1013200010935B0200935A0241E06AE289EE92E078
:101330000E944003F1E0F0935C0241CE6FE971E05E
:1013400085E692E00E94E60268E571E085E692E0BB
:101350000E94E602ACCD10926402109263028DE509
:1013600092E00E94D60464EF71E080E090E00E9479
:10137000010280E090E0892B09F499CD0E940000E1
:1013800096CD61701CCF6115710559F0232B49F082
:10139000FB01808190E0919581959109892B09F05D
:1013A00073CF0E94990368E671E089EE92E00E9493
:1013B000E60268EE73E080E090E00E9401020E9485
:1013C000990367E871E089EE92E00E94E60268EE18
:1013D00073E080E090E00E94010286E592E00E94C6
:1013E000D60410925C020E94420461CD1092680201
:1013F0001092670288EE93E0A0E0B0E0809369026B
:1014000090936A02A0936B02B0936C0283E391E025
:10141000909366028093650210927C021092800283
:1014200010927F021092810289E291E090937B02F8
:1014300080937A02E6E9F2E0108214821382158228
:10144000369682E0E23DF807B9F783E091E09093A9
:10145000DD028093DC0280E091E09093DF028093D4
:10146000DE0284E08093E00293E09093E10227E0C3
:1014700031E03093DB022093DA022AE030E030934F
:10148000E3022093E20224EF31E03093E50220935F
:10149000E4021092E8021092E7021092D602109233
:1014A000D7021092D8021092D9021092E60210923E
:1014B000EC021092EB022DE131E03093EA0220932E
:1014C000E9029CE09093ED029FEF9093EE029BE087
:1014D0009093EF0297E09093F00296E09093F102E0
:1014E00095E09093F2028093F3021092F40210922E
:1014F000F5021092F6021092F7021092F80281E0C3
:101500000E94A10366EA71E080E592E00E94CA06AB
:101510006AE571E086E592E00E94CA066AE571E03C
:101520008DE592E00C94CA068DE592E00E94F502EA
:1015300086E592E00E94F50280E592E00E94F502C5
:1015400083E391E0909366028093650280916F003F
:101550008B7F80936F0080916F008F7D80936F00F1
:1015600080914E0280934F028091F4018111FCCF53
:1015700080916F008D7F80936F0008952F923F922E
:101580004F925F926F927F928F929F92AF92BF9293
:10159000CF92DF92EF92FF920F931F93CF93DF933F
:1015A000CDB7DEB7CA1BDB0B0FB6F894DEBF0FBE9C
:1015B000CDBF09942A88398848885F846E847D84E9
:1015C0008C849B84AA84B984C884DF80EE80FD80EB
:1015D0000C811B81AA81B981CE0FD11D0FB6F89461
:1015E000DEBF0FBECDBFED010895EE0FFF1F0590CA
:1015F000F491E02D09940F931F93CF93DF938230E2
:10160000910510F482E090E0E0910303F09104036F
:1016100030E020E0B0E0A0E0309799F421153105EA
:1016200009F44AC0281B390B24303105D8F58A81CA
:101630009B816115710589F1FB0193838283FE0112
:1016400011C0408151810281138148175907E0F090
:101650004817590799F4109761F012960C93129756
:1016600013961C933296CF01DF91CF911F910F916A
:1016700008950093030310930403F4CF211531055B
:1016800051F04217530738F0A901DB019A01BD015F
:10169000DF01F801C1CFEF01F9CF909304038093EC
:1016A0000303CDCFFE01E20FF31F819391932250EC
:1016B000310939832883D7CF209101033091020368
:1016C000232B41F420911501309116013093020330
:1016D000209301032091130130911401211531054C
:1016E00041F42DB73EB74091170150911801241BCA
:1016F000350BE0910103F0910203E217F307A0F428
:101700002E1B3F0B2817390778F0AC014E5F5F4F57
:101710002417350748F04E0F5F1F50930203409384
:101720000103819391939FCFF0E0E0E09CCFCF93B2
:10173000DF930097E9F0FC01329713821282A091A7
:101740000303B0910403ED0130E020E01097A1F411
:1017500020813181820F931F209101033091020378
:101760002817390709F061C0F0930203E0930103E1
:10177000DF91CF910895EA01CE17DF07E8F54A819E
:101780005B819E0141155105B1F7E901FB83EA83B5
:1017900049915991C40FD51FEC17FD0761F4808161
:1017A00091810296840F951FE90199838883828134
:1017B00093819B838A83F0E0E0E012968D919C9167
:1017C00013970097B9F52D913C911197CD01029691
:1017D000820F931F209101033091020328173907CC
:1017E00039F6309751F51092040310920303B09329
:1017F0000203A0930103BCCFD383C28340815181F4
:10180000840F951FC817D90761F44E5F5F4F888119
:101810009981480F591F518340838A819B8193830B
:1018200082832115310509F0B0CFF0930403E093D2
:1018300003039ECFFD01DC01C0CF13821282D7CFFC
:10184000B0E0A0E0E6E2FCE00C94C00A8C01009756
:1018500051F4CB010E94FB0A8C01C801CDB7DEB761
:10186000E0E10C94DC0AFC01E60FF71F9C0122501A
:101870003109E217F30708F49DC0D901CD91DC913D
:101880001197C617D70798F0C530D10530F3CE01B0
:1018900004978617970708F3C61BD70B2297C193A7
:1018A000D1936D937C93CF010E94970BD6CF5B01B0
:1018B000AC1ABD0A4C018C0E9D1EA0910303B09181
:1018C0000403512C412CF12CE12C109731F580911F
:1018D0000103909102038815990509F05CC0461632
:1018E000570608F058C08091130190911401009799
:1018F00041F48DB79EB74091170150911801841B98
:10190000950BE817F90708F055C0F0930203E09330
:101910000103F90171836083A0CF8D919C91119790
:1019200012966C90129713967C901397A815B90590
:1019300059F56C0142E0C40ED11CCA14DB0420F13D
:10194000AC014A195B09DA011296159780F06282A0
:10195000738251834083D9016D937C93E114F10428
:1019600071F0D7011396FC93EE93129776CF2296DF
:101970008C0F9D1FF90191838083F301EFCFF093CA
:101980000403E093030369CF4816590608F42C01B9
:101990007D01D3019ACFCB010E94FB0A7C01009705
:1019A00049F0AE01B8010E94DD0CC8010E94970BFE
:1019B000870153CF10E000E050CFFB01DC0102C0F3
:1019C00001900D9241505040D8F70895FB01DC0181
:1019D0008D91019080190110D9F3990B0895FB01A5
:1019E000DC0101900D920020E1F7089510E0C2E6BD
:1019F000D0E004C0FE010E94F50A2196C336D1074B
:101A0000C9F7F894FFCF111213100F0E0D313233B6
:101A10003435363738392A3023000005038000007A
:101A2000000000A8043E02E302A40200000000330C
:101A30000237023B0200000000AA023E02E302A5B8
:101A4000026B028E027B024B484157554C455A416E
:101A50000054617020796F757220746167000D0AFF
:101A60000041423132333435363738394100416331
:101A700063657373204772616E74656400456E74AC
:101A800065722070617373776F72643A00596F7575
:101A9000206D617920626F6172642E2E2E00416389
:101AA000636573732044656E696564003132333455
:021AB000000034
:107E0000112484B714BE81FFF0D085E080938100F7
:107E100082E08093C00088E18093C10086E0809377
:107E2000C20080E18093C4008EE0C9D0259A86E02C
:107E300020E33CEF91E0309385002093840096BBD3
:107E4000B09BFECF1D9AA8958150A9F7CC24DD24C4
:107E500088248394B5E0AB2EA1E19A2EF3E0BF2EE7
:107E6000A2D0813461F49FD0082FAFD0023811F036
:107E7000013811F484E001C083E08DD089C08234E0
:107E800011F484E103C0853419F485E0A6D080C0E4
:107E9000853579F488D0E82EFF2485D0082F10E0AE
:107EA000102F00270E291F29000F111F8ED06801E7
:107EB0006FC0863521F484E090D080E0DECF843638
:107EC00009F040C070D06FD0082F6DD080E0C81688
:107ED00080E7D80618F4F601B7BEE895C0E0D1E017
:107EE00062D089930C17E1F7F0E0CF16F0E7DF06D8
:107EF00018F0F601B7BEE89568D007B600FCFDCFD4
:107F0000A601A0E0B1E02C9130E011968C91119780
:107F100090E0982F8827822B932B1296FA010C0160
:107F200087BEE89511244E5F5F4FF1E0A038BF0790
:107F300051F7F601A7BEE89507B600FCFDCF97BE46
:107F4000E89526C08437B1F42ED02DD0F82E2BD052
:107F50003CD0F601EF2C8F010F5F1F4F84911BD097
:107F6000EA94F801C1F70894C11CD11CFA94CF0C13
:107F7000D11C0EC0853739F428D08EE10CD085E9AC
:107F80000AD08FE07ACF813511F488E018D01DD067
:107F900080E101D065CF982F8091C00085FFFCCF94
:107FA0009093C60008958091C00087FFFCCF809118
:107FB000C00084FD01C0A8958091C6000895E0E648
:107FC000F0E098E1908380830895EDDF803219F02E
:107FD00088E0F5DFFFCF84E1DECF1F93182FE3DFCA
:107FE0001150E9F7F2DF1F91089580E0E8DFEE27F6
:047FF000FF270994CA
:027FFE00040479
:00000001FF
