:100000000C9463000C948B000C948B000C948B006C
:100010000C948B000C948B000C948B000C948B0034
:100020000C948B000C948B000C948B000C948B0024
:100030000C948B000C948B000C948B000C948B0014
:100040000C946C050C948B000C94DC050C94B60598
:100050000C948B000C948B000C948B000C948B00F4
:100060000C948B000C948B000000000024002700EF
:100070002A0000000000250028002B0000000000DE
:1000800023002600290004040404040404040202DA
:100090000202020203030303030301020408102007
:1000A0004080010204081020010204081020000012
:1000B0000008000201000003040700000000000027
:1000C00000001F064C0911241FBECFEFD8E0DEBF91
:1000D000CDBF22E0AEE8B1E001C01D92A23DB20763
:1000E000E1F711E0A0E0B1E0EAE3F7E102C005903A
:1000F0000D92AE38B107D9F710E0C2E6D0E004C0E7
:100100002197FE010E948F09C136D107C9F70E94CD
:10011000E8060C94900B0C94000096E0899FD001A7
:100120001124A15ABD4F90967C936E935F9791E0F6
:1001300091969C939197E091CC02F091CD02909191
:10014000CB02992339F0309751F0811108C080918A
:100150007B020994309719F05C968C91FACF089540
:10016000CF92DF92EF92FF920F931F9396E0899FB9
:10017000F0011124E15AFD4F11A2278D30A1213049
:10018000310551F178F02230310509F451C02330A6
:10019000310509F452C01F910F91FF90EF90DF904D
:1001A000CF9008956623B9F361E070E00E948D005E
:1001B0002FB7F8948091940190919501A0919601A8
:1001C000B09197012FBF8093B7029093B802A0938C
:1001D000B902B093BA02DFCF9FB7F894C0909401F0
:1001E000D0909501E0909601F09097019FBF00910B
:1001F000B7021091B8022091B9023091BA02C01A28
:10020000D10AE20AF30A0091C9021091CA0230E051
:1002100020E00C151D052E053F0550F462E070E04E
:100220001F910F91FF90EF90DF90CF900C948D0075
:100230006111B1CF63E070E0F3CF70E060E0F0CF28
:10024000833081F028F4813099F08230A9F008954C
:100250008730A9F08830C9F08430B1F480918000F3
:100260008F7D03C0809180008F77809380000895F8
:1002700084B58F7784BD089584B58F7DFBCF809141
:10028000B0008F778093B00008958091B0008F7D8B
:10029000F9CFCF93DF93282F30E0F901E255FF4FDC
:1002A0008491F901E656FF4FD491F901EA57FF4FC7
:1002B000C491CC23A1F081110E942001EC2FF0E029
:1002C000EE0FFF1FE458FF4FA591B491EC91ED2381
:1002D00081E090E009F480E0DF91CF91089580E023
:1002E00090E0FACF1F93CF93DF93282F30E0F901EE
:1002F000E255FF4F8491F901E656FF4FD491F90181
:10030000EA57FF4FC491CC23A9F0162F81110E9408
:100310002001EC2FF0E0EE0FFF1FEE58FF4FA591EC
:10032000B4918FB7F894EC91111108C0D095DE23E9
:10033000DC938FBFDF91CF911F910895DE2BF8CF13
:10034000CF93DF9390E0FC01E656FF4F24918A574C
:100350009F4FFC0184918823C9F090E0880F991F7A
:10036000FC01E859FF4FA591B491FC01EE58FF4FF5
:10037000C591D49161110DC09FB7F8948C912095CF
:1003800082238C938881282328839FBFDF91CF917C
:100390000895623051F49FB7F8943C91822F809574
:1003A00083238C93E8812E2BEFCF8FB7F894EC91B9
:1003B0002E2B2C938FBFEACF3FB7F89480919001FA
:1003C00090919101A0919201B091930126B5A89BC3
:1003D00005C02F3F19F00196A11DB11D3FBFBA2FD7
:1003E000A92F982F8827BC01CD01620F711D811D97
:1003F000911D42E0660F771F881F991F4A95D1F71C
:1004000008958F929F92AF92BF92CF92DF92EF9218
:10041000FF924B015C010E94DC016B017C010E9498
:10042000DC016C197D098E099F09683E73408105C6
:100430009105A8F321E0821A9108A108B10888EE7D
:10044000C80E83E0D81EE11CF11C81149104A104A4
:10045000B10429F7FF90EF90DF90CF90BF90AF905D
:100460009F908F900895862F642F0C94A001862F63
:10047000642F0C947201862F0C944901AF92BF92A5
:10048000CF92DF92EF92FF920F931F93CF93DF9360
:100490006C017B018B01040F151FEB015E01AE188F
:1004A000BF08C017D10759F06991D601ED91FC91B1
:1004B0000190F081E02DC6010995892B79F7C501DE
:1004C000DF91CF911F910F91FF90EF90DF90CF9030
:1004D000BF90AF900895FC01538D448D252F30E0DF
:1004E000842F90E0821B930B541710F0CF96089541
:1004F00001970895FC01918D828D981761F0A28D6E
:10050000AE0FBF2FB11D5D968C91928D9F5F9F7333
:10051000928F90E008958FEF9FEF0895FC01918DE9
:10052000828D981731F0828DE80FF11D858D90E056
:1005300008958FEF9FEF0895FC01918D228D892FF3
:1005400090E0805C9F4F821B91098F7399270895DB
:1005500088E991E00E949C0221E0892B09F420E0C7
:10056000822F089580E090E0892B29F00E94A80254
:1005700081110C9400000895FC01A48DA80FB92FDF
:10058000B11DA35ABF4F2C91848D90E001968F73BB
:100590009927848FA689B7892C93A089B1898C91DA
:1005A000837080648C93938D848D981306C0028829
:1005B000F389E02D80818F7D80830895EF92FF92F3
:1005C0000F931F93CF93DF93EC0181E0888F9B8D76
:1005D0008C8D98131AC0E889F989808185FF15C030
:1005E0009FB7F894EE89FF896083E889F989808153
:1005F0008370806480839FBF81E090E0DF91CF9122
:100600001F910F91FF90EF900895F62E0B8D10E043
:100610000F5F1F4F0F731127E02E8C8D8E110CC0B2
:100620000FB607FCFACFE889F989808185FFF5CFFD
:10063000CE010E94BC02F1CFEB8DEC0FFD2FF11D1E
:10064000E35AFF4FF0829FB7F8940B8FEA89FB893A
:1006500080818062CFCFCF93DF93EC01888D882398
:10066000B9F0AA89BB89E889F9898C9185FD03C015
:10067000808186FD0DC00FB607FCF7CF8C9185FFFA
:10068000F2CF808185FFEDCFCE010E94BC02E9CF81
:10069000DF91CF910895089590E080E00895CF9381
:1006A000DF93EC0160E08E810E94720161E08E8137
:1006B0000E94720160E08E810E9472018BE891E0DD
:1006C0000197F1F7DF91CF910895CF92DF92EF92EA
:1006D000FF920F931F93CF93DF936C017C0187E010
:1006E000E80EF11CD0E0C0E0062F10E0B8010C2E9F
:1006F00002C0759567950A94E2F76170F7018191E0
:100700007F010E9472012196C430D10579F7C6019C
:10071000DF91CF911F910F91FF90EF90DF90CF90DD
:100720000C944F03CF92DF92EF92FF920F931F939F
:10073000CF93DF93EC01F62E642F8C810E9472011F
:100740008D818F3F19F060E00E9472010F2D10E043
:100750008F8584FF25C06E0187E0C80ED11CF12C67
:10076000E12CB8010E2C02C0759567950A94E2F74A
:100770006170F60181916F010E947201FFEFEF1A23
:10078000FF0A88E0E816F10461F7CE01DF91CF910E
:100790001F910F91FF90EF90DF90CF900C944F033B
:1007A000B80184E0759567958A95E1F7CE010E94BE
:1007B00065036F2DCE01DF91CF911F910F91FF90B7
:1007C000EF90DF90CF900C94650340E0682F87E4B2
:1007D00092E00C94920381E00E94E5038BE39FE199
:1007E0000197F1F70895CF93DF93823029F4909128
:1007F000560298609093560280935A0210925B02C0
:1008000080E480935C0280E180935D0280E58093C8
:100810005E0261E080914B020E94A00180914C0237
:100820008F3F19F061E00E94A00161E080914D02CC
:100830000E94A001C7E4D2E09E012754324080917B
:10084000560284FD0BC084E090E0219628173907FA
:1008500044F461E08E810E94A001EECF88E090E038
:10086000F4CF8BE39DE00197F1F760E080914B02BC
:100870000E94720160E080914D020E94720180919D
:100880004C028F3F19F060E00E9472018091560285
:1008900084FD34C063E087E492E00E946503CBE40A
:1008A000D6E4CE010197F1F763E087E492E00E947D
:1008B00065032197F1F763E087E492E00E94650306
:1008C00083E592E00197F1F762E087E492E00E940D
:1008D00065038091560280620E94E50384E0809364
:1008E00057028CE00E94E5030E94EB0382E08093B4
:1008F000580286E0DF91CF910C94E50380620E945C
:10090000E5038BE496E40197F1F78091560280624B
:100910000E94E50383E592E00197F1F7809156028A
:1009200080620E94E503D5CF41E00E94920381E0FE
:1009300090E00895FC0101900020E9F73197AF01A4
:10094000481B590BBC0187E492E00C943E02CF9304
:10095000DF93E091A801F091A90182E08083E0910A
:10096000A401F091A5011082E091A601F091A701E8
:100970008FEC80831092B001E091AC01F091AD0159
:1009800086E08083E091AA01F091AB0180818061D3
:100990008083E091AA01F091AB018081886080831F
:1009A000E091AA01F091AB01808180688083E091A1
:1009B000AA01F091AB0180818F7D808382E00E944B
:1009C000F3030E94EB0381E491E00E949A0460ED3E
:1009D00077E080E090E00E940102C0E1D0E08CE18D
:1009E0000E94E50362E370E080E090E00E94010273
:1009F0002197A9F768EE73E080E090E00E94010281
:100A00000E94EB03E1E080915A028111E0E0E19560
:100A1000F0E0E95BFD4F84898068DF91CF910C9411
:100A2000E503FC0180819181009711F00C94310A5B
:100A300008950F931F93CF93DF93EC0188819981E1
:100A4000009759F02A813B812617370730F081E063
:100A5000DF91CF911F910F9108958B016F5F7F4FB1
:100A60000E94BA0A009759F0998388831B830A83EE
:100A70002C813D81232B59F7FC011082E8CF80E0C7
:100A8000E7CFEF92FF920F931F93CF93DF93EC0189
:100A90007B018A01BA010E941905288139818111DF
:100AA00014C02115310519F0C9010E94310A1982BB
:100AB00018821D821C821B821A82CE01DF91CF9187
:100AC0001F910F91FF90EF9008951D830C83B70144
:100AD000C9010E94890BF1CF1F920F920FB60F929E
:100AE00011242F933F938F939F93AF93BF93809144
:100AF000940190919501A0919601B0919701309148
:100B00008F0123E0230F2D3758F50196A11DB11D4C
:100B100020938F018093940190939501A093960167
:100B2000B09397018091900190919101A0919201D1
:100B3000B09193010196A11DB11D809390019093F6
:100B40009101A0939201B0939301BF91AF919F91B6
:100B50008F913F912F910F900FBE0F901F9018957E
:100B600026E8230F0296A11DB11DD2CF1F920F922E
:100B70000FB60F9211242F933F934F935F936F9370
:100B80007F938F939F93AF93BF93EF93FF9388E9E6
:100B900091E00E94BC02FF91EF91BF91AF919F91B4
:100BA0008F917F916F915F914F913F912F910F9016
:100BB0000FBE0F901F9018951F920F920FB60F92B5
:100BC00011242F938F939F93EF93FF93E091A801AC
:100BD000F091A9018081E091AE01F091AF0182FD19
:100BE0001BC090818091B1018F5F8F732091B20102
:100BF000821741F0E091B101F0E0E856FE4F958F89
:100C00008093B101FF91EF919F918F912F910F9060
:100C10000FBE0F901F9018958081F4CFFC011182B8
:100C200010821382128215821482FB01019000202F
:100C3000E9F73197AF01461B570B0C944105109211
:100C40009B0110929A0188EE93E0A0E0B0E08093BF
:100C50009C0190939D01A0939E01B0939F018DE113
:100C600091E0909399018093980185EC90E09093A6
:100C7000A5018093A40184EC90E09093A701809358
:100C8000A60180EC90E09093A9018093A80181ECEB
:100C900090E09093AB018093AA0182EC90E0909356
:100CA000AD018093AC0186EC90E09093AF0180930E
:100CB000AE011092B1011092B2011092B3011092E4
:100CC000B4011092610210926502109264021092B7
:100CD00066028BE391E09093600280935F02EBE702
:100CE000F2E01082148213821582369682E0E73B8E
:100CF000F807B9F783E091E09093C2028093C102B4
:100D000080E091E09093C4028093C30294E09093BA
:100D1000C50283E08093C60227E031E03093C00231
:100D20002093BF022AE030E03093C8022093C7022C
:100D300024EF31E03093CA022093C9021092CD0211
:100D40001092CC021092BB021092BC021092BD0213
:100D50001092BE021092CB0210924A0210924902E7
:100D60002FE231E0309348022093470227E020939E
:100D70004B022FEF20934C0226E020934D0225E0FA
:100D800020934E0290934F028093500282E0809312
:100D90005102109252021092530210925402109279
:100DA00055021092560281E00E94F3036BE471E059
:100DB00081E492E00E940E066FE771E08BE392E01F
:100DC0000E940E066FE771E085E392E00C940E0638
:100DD000CF93DF9300D0CDB7DEB7789484B582602F
:100DE00084BD84B5816084BD85B5826085BD85B5CF
:100DF000816085BD80916E00816080936E0010924D
:100E000081008091810082608093810080918100C7
:100E10008160809381008091800081608093800058
:100E20008091B10084608093B1008091B0008160B6
:100E30008093B00080917A00846080937A008091E2
:100E40007A00826080937A0080917A00816080933A
:100E50007A0080917A00806880937A001092C100B5
:100E60000E94A704412C512C3201439440E0A42E4F
:100E700040E0B42E80E591E00E949A04E0915A028D
:100E8000E23008F03EC0E150F0E0E95BFD4F8489BC
:100E900080680E94E50351E05093CB028FB7F8942D
:100EA0004091940150919501609196017091970144
:100EB0008FBF8091BB029091BC02A091BD02B09106
:100EC000BE02481B590B6A0B7B0B8091C7029091A5
:100ED000C802B0E0A0E084179507A607B707D8F6C8
:100EE00010E08091C502181770F4E091C102F091F2
:100EF000C202E10FF11D62E080810E94A0011F5F2C
:100F0000F0CFE1E0C1CF312C8091C602381608F055
:100F100061C0E32CF12CE091C302F091C402EE0D0C
:100F2000FF1D61E080810E94A001E091C302F09169
:100F3000C402EE0DFF1D60E080810E947201D301AA
:100F4000C201032C04C0880F991FAA1FBB1F0A945B
:100F5000D2F74C016C01C094D094212C8091C50231
:100F6000281608F5022D10E0E091C102F091C202AE
:100F7000E00FF11F80810E9449010C5F1F4F000F9D
:100F8000111FF801E15AFD4F892B41F480819181B5
:100F900088299929918380832394E0CF808191814E
:100FA0008C219D21F7CFE091C302F091C402EE0D98
:100FB000FF1D61E080810E9472018091C3029091C7
:100FC000C402E80EF91E60E0F70180810E94A001D2
:100FD00033949ACF0FE512E07801F701878D90A145
:100FE000892B31F4148E8FEF9FEF968F858F11A28E
:100FF00096E0E90EF11CEBE9F2E0EE15FF0569F76A
:10100000D12C8091C502D81608F053C0C12C8D2C6C
:10101000912C880C991CC40189599D4F4C01209139
:10102000C602C21608F043C0F401608171810C2C25
:1010300002C0769567950A94E2F7D29E900111243A
:101040002C0D311DEFE5F2E080E0458D568D241723
:10105000350709F4E1C08F5F36968A30B1F760FF3B
:1010600024C0EFE5F2E090E080E0448D411118C02B
:10107000E091BF02F091C002E20FF31F408156E001
:10108000589FF001599FF00D1124E15AFD4F448FF4
:10109000368F258F10A2178E61E00E94B00005C028
:1010A000019636968A30910501F7C394B8CFD39450
:1010B000A8CF80E0F80191A19111892F0A5F1F4FFD
:1010C0000E151F05B9F79FB7F89440919401509100
:1010D000950160919601709197019FBF4093BB026B
:1010E0005093BC026093BD027093BE02882309F442
:1010F000D2CE80918002882309F4CDCE80917E02E9
:1011000090917F02019709F0C6CE80917B028332D5
:1011100009F053C080918E01882309F4BCCE209140
:101120003F0230914002809145029091460228177B
:101130003907C1F480913B0290913C0260914102D9
:1011400070914202009709F469C06115710539F484
:10115000232B09F471C0FC01808190E06AC00E94D9
:10116000800B67C00E94EB0380E891E00E949A0424
:1011700060ED77E080E090E00E9401020E94EB03C6
:1011800080E591E00E949A04E0915A02E23098F4DE
:10119000E150F0E0E95BFD4F848980680E94E5033F
:1011A00050E040E06FE771E08BE392E00E94410580
:1011B00010928E0170CEE1E0ECCF882309F46BCE63
:1011C00089831A8200913F02109140020F5F1F4FE6
:1011D000B8018BE392E00E941905882399F02091D1
:1011E0003B0230913C0280913F0290914002BE014F
:1011F0006F5F7F4F820F931F0E94890B10934002F5
:1012000000933F0241E06AE287E492E00E94920389
:10121000F1E0F0938E013FCE61703FCF6115710513
:1012200059F0232B49F0FB01808190E09195819545
:101230009109892B09F096CF0E94EB0380E691E09B
:101240000E949A0468EE73E080E090E00E94010240
:101250000E94EB038FE691E00E949A0460ED77E034
:1012600080E090E00E94010250E040E06FE771E012
:101270008BE392E00E94410510928E010E94A70428
:10128000A114B10409F4F6CD0E94A802882309F440
:10129000F1CD0E940000EECD85E392E00E941105A1
:1012A0008BE392E00E94110581E492E00C94110519
:1012B0002F923F924F925F926F927F928F929F9266
:1012C000AF92BF92CF92DF92EF92FF920F931F9354
:1012D000CF93DF93CDB7DEB7CA1BDB0B0FB6F89405
:1012E000DEBF0FBECDBF09942A88398848885F8445
:1012F0006E847D848C849B84AA84B984C884DF80B6
:10130000EE80FD800C811B81AA81B981CE0FD11D99
:101310000FB6F894DEBF0FBECDBFED010895EE0FFE
:10132000FF1F0590F491E02D09940F931F93CF9325
:10133000DF938230910510F482E090E0E091D002DA
:10134000F091D10230E020E0B0E0A0E0309799F4D5
:101350002115310509F44AC0281B390B2430310509
:10136000D8F58A819B816115710589F1FB01938311
:101370008283FE0111C0408151810281138148178F
:101380005907E0F04817590799F4109761F0129641
:101390000C93129713961C933296CF01DF91CF9145
:1013A0001F910F9108950093D0021093D102F4CFB2
:1013B0002115310551F04217530738F0A901DB011F
:1013C0009A01BD01DF01F801C1CFEF01F9CF909380
:1013D000D1028093D002CDCFFE01E20FF31F8193A3
:1013E00091932250310939832883D7CF2091CE029F
:1013F0003091CF02232B41F4209115013091160139
:101400003093CF022093CE0220911301309114012A
:101410002115310541F42DB73EB740911701509188
:101420001801241B350BE091CE02F091CF02E21798
:10143000F307A0F42E1B3F0B2817390778F0AC01F7
:101440004E5F5F4F2417350748F04E0F5F1F5093D4
:10145000CF024093CE02819391939FCFF0E0E0E0E2
:101460009CCFCF93DF930097E9F0FC013297138272
:101470001282A091D002B091D102ED0130E020E0C3
:101480001097A1F420813181820F931F2091CE0209
:101490003091CF022817390709F061C0F093CF02CD
:1014A000E093CE02DF91CF910895EA01CE17DF07D6
:1014B000E8F54A815B819E0141155105B1F7E901CB
:1014C000FB83EA8349915991C40FD51FEC17FD079F
:1014D00061F4808191810296840F951FE9019983BF
:1014E0008883828193819B838A83F0E0E0E0129677
:1014F0008D919C9113970097B9F52D913C9111977F
:10150000CD010296820F931F2091CE023091CF021F
:101510002817390739F6309751F51092D1021092F9
:10152000D002B093CF02A093CE02BCCFD383C283AC
:1015300040815181840F951FC817D90761F44E5F10
:101540005F4F88819981480F591F518340838A8159
:101550009B81938382832115310509F0B0CFF093ED
:10156000D102E093D0029ECFFD01DC01C0CF1382F7
:101570001282D7CFB0E0A0E0E0ECFAE00C945A0978
:101580008C01009751F4CB010E9495098C01C80190
:10159000CDB7DEB7E0E10C947609FC01E60FF71F4A
:1015A0009C0122503109E217F30708F49DC0D901CC
:1015B000CD91DC911197C617D70798F0C530D105AA
:1015C00030F3CE0104978617970708F3C61BD70B95
:1015D0002297C193D1936D937C93CF010E94310ADE
:1015E000D6CF5B01AC1ABD0A4C018C0E9D1EA0919A
:1015F000D002B091D102512C412CF12CE12C10974A
:1016000031F58091CE029091CF028815990509F0AD
:101610005CC04616570608F058C08091130190919F
:101620001401009741F48DB79EB740911701509176
:101630001801841B950BE817F90708F055C0F093C3
:10164000CF02E093CE02F90171836083A0CF8D9128
:101650009C91119712966C90129713967C90139709
:10166000A815B90559F56C0142E0C40ED11CCA1485
:10167000DB0420F1AC014A195B09DA0112961597D7
:1016800080F06282738251834083D9016D937C9391
:10169000E114F10471F0D7011396FC93EE931297C5
:1016A00076CF22968C0F9D1FF90191838083F301E1
:1016B000EFCFF093D102E093D00269CF48165906DC
:1016C00008F42C017D01D3019ACFCB010E9495092A
:1016D0007C01009749F0AE01B8010E94770BC80168
:1016E0000E94310A870153CF10E000E050CFFB0188
:1016F000DC0102C001900D9241505040D8F708958E
:10170000FB01DC018D91019080190110D9F3990B37
:101710000895FB01DC0101900D920020E1F708958E
:1017200010E0C2E6D0E004C0FE010E948F092196BD
:0A173000C336D107C9F7F894FFCFC4
:10173A000C0D130B0A090831323334353637383970
:10174A002A30230000D202800000000000DE023EA0
:10175A00026B022B039C027A028E020000000094A4
:10176A00043E024C034B0300000000330237023BE5
:10177A00024B484157554C455A41003132333400E7
:10178A00456E7465722070617373776F72643A0084
:10179A00416363657373204772616E7465640059AF
:1017AA006F75206D617920626F6172642E2E2E0032
:0E17BA004163636573732044656E6965640066
:00000001FF
